:020000040800F2
:10000000005000207D0F0008ED0E0008F50E0008DE
:10001000FD0E0008050F00080D0F0008000000008D
:10002000000000000000000000000000150F0008A4
:10003000210F0008000000002D0F0008390F0008F4
:10004000C50F0008C50F0008C50F0008C50F000840
:10005000C50F0008C50F0008C50F0008C50F000830
:10006000C50F0008C50F0008C50F0008C50F000820
:10007000C50F0008C50F0008C50F0008C50F000810
:10008000C50F0008C50F0008C50F0008C50F000800
:10009000C50F0008C50F0008C50F0008C50F0008F0
:1000A000C50F0008C50F0008C50F0008C50F0008E0
:1000B000450F0008C50F0008C50F0008C50F000850
:1000C000C50F0008C50F0008C50F0008C50F0008C0
:1000D000C50F0008C50F0008C50F0008C50F0008B0
:1000E000C50F0008C50F0008C50F0008000000007C
:1000F0000000000000000000000000000000000000
:0C01000000000000000000005FF808F1A3
:10010C0010B5054C237833B9044B13B10448AFF345
:10011C0000800123237010BD780000200000000037
:10012C000826000808B5034B1BB103490348AFF37D
:10013C00008008BD000000007C000020082600089C
:10014C0080B483B000AF7860094A7B6852F82330E2
:10015C00012B06D1064A7B68002142F823100123AB
:10016C0000E0002318460C37BD4680BC704700BF2A
:10017C00A000002080B483B000AF7860094A7B688F
:10018C0052F82330012B06D1064A7B68002142F835
:10019C002310012300E0002318460C37BD4680BC19
:1001AC00704700BF9400002080B582B000AF0023E0
:1001BC007B6096E04F4A7B6852F823204E497B685F
:1001CC0041F823204D4A7B6852F8232049497B682B
:1001DC0041F823207B68022B1FD07B68022B27DC85
:1001EC007B68002B03D07B68012B0BD020E0802197
:1001FC00434801F0D7F903461946404A7B6842F858
:10020C00231015E040213F4801F0CCF90346194674
:10021C003A4A7B6842F823100AE02021394801F061
:10022C00C1F903461946354A7B6842F8231000BFD2
:10023C00304A7B6852F8232030497B6851F82330D0
:10024C009A424BD12B4A7B6852F823202A497B686F
:10025C0051F823309A4241D1274A7B6852F8232027
:10026C0029497B6851F823309A4218D0224A7B687E
:10027C0052F8232024497B6841F823201F4A7B68CD
:10028C0052F82330002B29D1204A7B68642142F894
:10029C0023101F4A7B68012142F823101EE01B4AE1
:1002AC007B6852F823305A1E18497B6841F823208A
:1002BC00164A7B6852F82330002B0FD1134A7B6807
:1002CC000A2142F82310104A7B6852F82330002B85
:1002DC0004D10F4A7B68012142F823107B6801335B
:1002EC007B607B68022B7FF765AF00BF00BF0837D0
:1002FC00BD4680BD0C00002018000020000000202E
:10030C0000100140000C01402400002030000020AF
:10031C00A000002080B582B000AF78607B68482BCD
:10032C001DD07B68482B44DC7B680C2B2CD07B6865
:10033C00452B3ED101224FF480612A4801F049F946
:10034C0001221021274801F044F9274B01221A60A1
:10035C00264B00221A60264B00221A603EE0002237
:10036C004FF480611F4801F034F9012210211D481F
:10037C0001F02FF91C4B00221A601C4B00221A6052
:10038C001B4B01221A6029E001224FF480611548B1
:10039C0001F01FF900221021124801F01AF9124B3A
:1003AC0000221A60114B01221A60114B00221A60B4
:1003BC0014E000224FF480610A4801F00AF900228F
:1003CC001021084801F005F9074B00221A60074B71
:1003DC0000221A60064B00221A6000BF00BF0837CB
:1003EC00BD4680BD000C0140AC000020B0000020D8
:1003FC00B400002080B582B000AF78607B68482BD9
:10040C001ED07B68482B47DC7B680C2B2ED07B687E
:10041C00452B41D101224FF480712C4801F0D9F8C1
:10042C0001224FF40071294801F0D3F8284B012226
:10043C001A60284B00221A60274B00221A6041E0F8
:10044C0000224FF48071214801F0C3F801224FF4CF
:10045C0000711E4801F0BDF81D4B00221A601D4BA7
:10046C0000221A601C4B01221A602BE001224FF46F
:10047C008071164801F0ADF800224FF4007113485A
:10048C0001F0A7F8124B00221A60124B01221A60DD
:10049C00114B00221A6015E000224FF480710B48BA
:1004AC0001F097F800224FF40071084801F091F820
:1004BC00074B00221A60074B00221A60064B0022E1
:1004CC001A6000BF00BF0837BD4680BD0008014060
:1004DC00AC000020B0000020B400002080B500AFBC
:1004EC00424B1B68013B042B67D801A252F823F046
:1004FC001105000831050008C70500085D05000856
:10050C00890500083A4B1B683A4A13603A4B1B6842
:10051C003A4A1360364B1B68394A1360334B02223C
:10052C001A604AE00C20FFF765FF4520FFF7F2FE4A
:10053C00334B1B68002B3BD12C4B03221A60314BE5
:10054C001B682C4A13602F4B1B682D4A13602FE03D
:10055C004520FFF74FFF0C20FFF7DCFE284B1B68F4
:10056C00002B27D1214B05221A60264B1B68234AEE
:10057C001360244B1B68224A13601BE04820FFF7D2
:10058C00C9FE4520FFF736FF1D4B1B68002B13D10E
:10059C00164B02221A60164B1B68164A1360164B38
:1005AC001B68164A1360124B1B68154A136003E054
:1005BC0000BF02E000BF00E000BF0E4B1B68013B18
:1005CC000C4A13600D4B1B68013B0C4A13600C4B1F
:1005DC001B68013B0A4A1360064B1B680A4A1360EE
:1005EC00064B1B68094A136000BF80BD58000020F1
:1005FC0040000020C40000203C000020C800002067
:10060C00C000002044000020B8000020BC000020E6
:10061C0080B500AF9D4B1B68013B0D2B00F2FF8199
:10062C0001A252F823F000BF6D0600082B0A000847
:10063C002B0A00082B0A00082B0A00082B0A0008BA
:10064C002B0A00082B0A00082B0A00082B0A0008AA
:10065C002B0A0008CF06000899070008D1080008EB
:10066C000020FFF76DFD0346002B0BD04520FFF754
:10067C0051FE4520FFF7BEFE844B0C221A60844BC2
:10068C0001221A60834B1B68012B05D1FFF726FF53
:10069C004FF47A7000F008FB7F4B1B68012B40F085
:1006AC00C0817E4B1B6801337C4A13607B4B1B68FB
:1006BC00022B02D1794B00221A60642000F010FB4F
:1006CC00AFE10020FFF73CFD0346002B0BD0482088
:1006DC00FFF720FE4820FFF78DFE6C4B0D221A60B1
:1006EC006B4B01221A600120FFF72AFD0346002BF9
:1006FC000BD06B4B1B680133694A1360684B1B684A
:10070C00632B02DD664B01221A600220FFF718FDF5
:10071C000346002B06D0624B1B68624A1360604B89
:10072C0001221A605C4B1B68012B15D15E4B012218
:10073C001A605B4B1B685D4A1360584B1B68013396
:10074C00564A1360554B1B68022B02D1534B0022A7
:10075C001A60642000F0C4FA554B1B68012B40F062
:10076C006281544B1B68012B06D10020FFF7D2FD90
:10077C000020FFF73FFE05E04520FFF7CBFD4520AD
:10078C00FFF738FEFA2000F0C7FA4CE10020FFF723
:10079C00D7FC0346002B0BD00C20FFF7BBFD0C2025
:1007AC00FFF728FE394B0E221A60394B01221A60D2
:1007BC00394B1B68012B15D13B4B02221A603E4B67
:1007CC001B683A4A1360354B1B680133334A13607C
:1007DC00324B1B68022B02D1304B00221A60642072
:1007EC0000F07EFA0120FFF7C5FC0346002B13D066
:1007FC00274B1B68012B0FD12F4B1B6801332E4A43
:10080C0013602D4B1B68632B02DD2B4B01221A60EE
:10081C004FF4FA7000F09CFA0120FFF791FC0346AC
:10082C00002B0BD0244B1B680133234A1360224B43
:10083C001B68632B02DD204B01221A600220FFF79C
:10084C007FFC0346002B06D01B4B1B681B4A136016
:10085C00194B01221A60164B1B68012B40F0E580E6
:10086C00174B1B68012B06D10020FFF753FD00200E
:10087C00FFF7C0FD05E04820FFF74CFD4820FFF7CF
:10088C00B9FDFA2000F048FACFE000BF5400002078
:10089C00680000205C00002060000020D0000020D8
:1008AC00480000203C000020B8000020BC000020C4
:1008BC0064000020AC000020500000204400002008
:1008CC00B40000200020FFF73BFC0346002B3AD07D
:1008DC00584B1A68584B1B689A420BDD554B1B68DA
:1008EC00564A1360544B1B68524A1360534B1B6897
:1008FC00514A1360504B1A684E4B1B681A44504BAC
:10090C001B689A4206DD4C4B1A684A4B1B68134411
:10091C004B4A1360484B1A68464B1B681A44484BA9
:10092C001B689A4206DC464B1A68424B1B68D31A6A
:10093C00414A1360434B01221A60434B01221A6057
:10094C00424B01221A600120FFF714FC0346002BD6
:10095C0013D03E4B1B68012B0FD13D4B1B68013351
:10096C003B4A13603A4B1B68632B02DD384B012268
:10097C001A604FF4FA7000F0EBF90120FFF7E0FB7E
:10098C000346002B0BD0324B1B680133304A1360EB
:10099C002F4B1B68632B02DD2D4B01221A600220AA
:1009AC00FFF7CEFB0346002B06D0294B1B68224ACF
:1009BC001360274B01221A60264B1B68012B15D1A3
:1009CC00254B03221A60224B1B68244A1360244BCC
:1009DC001B680133224A1360214B1B68022B02D186
:1009EC001F4B00221A60642000F07AF91D4B1B6823
:1009FC00012B1CD11C4B1B68012B06D10020FFF7CF
:100A0C0089FC0020FFF7F6FC05E00C20FFF782FCC8
:100A1C000C20FFF7EFFCFA2000F07EF907E000BF96
:100A2C0006E000BF04E000BF02E000BF00E000BF32
:100A3C0000BF80BD4400002040000020CC000020FE
:100A4C003C000020540000205800002068000020CA
:100A5C004C00002060000020B8000020BC000020EA
:100A6C00D000002064000020B000002080B500AF52
:100A7C0000F0A4FA00F00EF800F094F800F046F83C
:100A8C00034801F0EDF9FFF7C3FD00BFFBE700BF22
:100A9C00D400002080B590B000AF07F118032822D5
:100AAC000021184601F07EFD3B1D00221A605A60A1
:100ABC009A60DA601A610223BB610123BB621023C6
:100ACC00FB6200237B6307F11803184600F09AFDC4
:100ADC000346002B01D000F0E1F80F237B600023CC
:100AEC00BB600023FB6000233B6100237B613B1D4B
:100AFC000021184601F008F80346002B01D000F045
:100B0C00CDF800BF4037BD4680BD000080B586B033
:100B1C0000AF07F1080300221A605A609A60DA608D
:100B2C003B4600221A605A601D4B4FF080421A60FF
:100B3C001B4B41F63F725A60194B00229A60184BBE
:100B4C000922DA60164B00221A61154B00229A61B9
:100B5C00134801F035F90346002B01D000F09EF844
:100B6C004FF48053BB6007F1080319460C4801F0A1
:100B7C00B9FA0346002B01D000F090F800233B603B
:100B8C0000237B603B461946054801F09BFC03465D
:100B9C00002B01D000F082F800BF1837BD4680BD95
:100BAC00D400002080B588B000AF07F110030022FC
:100BBC001A605A609A60DA60344B9B69334A43F08E
:100BCC0008039361314B9B6903F00803FB60FB68DE
:100BDC002E4B9B692D4A43F0100393612B4B9B6961
:100BEC0003F01003BB60BB68284B9B69274A43F09A
:100BFC0004039361254B9B6903F004037B607B68C2
:100C0C0000224FF48261224800F0E3FC00224FF4F2
:100C1C004071204800F0DDFC4FF482633B610123FE
:100C2C007B610023BB610223FB6107F110031946B2
:100C3C00174800F033FB80233B6100237B610123C9
:100C4C00BB6107F110031946134800F027FB4FF462
:100C5C0040733B6101237B610023BB610223FB6179
:100C6C0007F1100319460B4800F018FB60233B6199
:100C7C0000237B610123BB6107F110031946044873
:100C8C0000F00CFB00BF2037BD4680BD00100240B9
:100C9C00000C0140000801400010014080B400AF7E
:100CAC0072B600BF00BFFDE780B483B000AF7860C0
:100CBC007B68084A82FB03129210DB17D31A064A90
:100CCC001360064B00221A6000BF0C37BD4680BC77
:100CDC00704700BF676666661C0100205C00002040
:100CEC0080B483B000AF78607B68084A82FB031243
:100CFC009210DB17D31A064A1360064B00221A60B7
:100D0C0000BF0C37BD4680BC704700BF6766666687
:100D1C00200100206000002080B483B000AF786018
:100D2C007B68084A82FB03129210DB17D31A064A1F
:100D3C001360064B00221A6000BF0C37BD4680BC06
:100D4C00704700BF676666662401002064000020BF
:100D5C0080B483B000AF78607B68084A82FB0312D2
:100D6C009210DB17D31A064A1360064B00221A6046
:100D7C0000BF0C37BD4680BC704700BF6766666617
:100D8C00280100206800002080B400AF214B1B68B4
:100D9C00002B0BDD1F4B1B68013B1E4A13601D4BC8
:100DAC001B68002B02D11C4B01221A601B4B1B68C9
:100DBC00002B0BDD194B1B68013B184A1360174BBA
:100DCC001B68002B02D1164B01221A60154B1B68B5
:100DDC00002B0BDD134B1B68013B124A1360114BAC
:100DEC001B68002B02D1104B01221A600F4B1B68A1
:100DFC00002B0BDD0D4B1B68013B0C4A13600B4B9E
:100E0C001B68002B02D10A4B01221A6000BFBD46A1
:100E1C0080BC70471C0100205C00002020010020D9
:100E2C006000002024010020640000202801002024
:100E3C006800002080B485B000AF154B9B69144A44
:100E4C0043F001039361124B9B6903F00103BB60F8
:100E5C00BB680F4BDB690E4A43F08053D3610C4BDC
:100E6C00DB6903F080537B607B680A4B5B68FB603B
:100E7C00FB6823F0E063FB60FB6843F00073FB60EE
:100E8C00044AFB68536000BF1437BD4680BC7047F2
:100E9C00001002400000014080B584B000AF7860C3
:100EAC007B681B68B3F1804F13D10C4BDB690B4A89
:100EBC0043F00103D361094BDB6903F00103FB60D1
:100ECC00FB68002200211C2000F0B1F91C2000F06E
:100EDC00CAF900BF1037BD4680BD00BF00100240EC
:100EEC0080B400AF00BFFDE780B400AF00BFFDE7EA
:100EFC0080B400AF00BFFDE780B400AF00BFFDE7DA
:100F0C0080B400AF00BFFDE780B400AF00BFBD46AA
:100F1C0080BC704780B400AF00BFBD4680BC70473A
:100F2C0080B400AF00BFBD4680BC704780B500AF39
:100F3C0000F08AF800BF80BD80B500AF024800F019
:100F4C00E1FF00BF80BD00BFD400002080B400AF23
:100F5C0000BFBD4680BC704780B582B000AF7860E2
:100F6C00FFF712FFFFF720F900BF0837BD4680BD21
:100F7C00FFF7ECFF0B480C490C4A002302E0D45855
:100F8C00C4500433C4188C42F9D3094A094C0023C9
:100F9C0001E013600432A242FBD301F00BFBFFF71C
:100FAC0065FD704700000020780000204C260008EA
:100FBC007800002030010020FEE7000080B500AF73
:100FCC00084B1B68074A43F010031360032000F022
:100FDC0023F90F2000F008F8FFF72CFF0023184628
:100FEC0080BD00BF0020024080B582B000AF7860A9
:100FFC00124B1A68124B1B7819464FF47A73B3FBD9
:10100C00F1F3B2FBF3F3184600F03BF90346002B67
:10101C0001D001230EE07B680F2B0AD800227968DF
:10102C004FF0FF3000F003F9064A7B681360002391
:10103C0000E0012318460837BD4680BD6C00002037
:10104C00740000207000002080B400AF054B1B78AA
:10105C001A46054B1B681344034A136000BFBD4678
:10106C0080BC7047740000202C01002080B400AFBD
:10107C00024B1B681846BD4680BC70472C010020F3
:10108C0080B485B000AF78607B6803F00703FB6029
:10109C000C4BDB68BB60BA684FF6FF031340BB60B8
:1010AC00FB681A02BB68134343F0BF6343F400337D
:1010BC00BB60044ABB68D36000BF1437BD4680BC1C
:1010CC00704700BF00ED00E080B400AF044BDB685C
:1010DC001B0A03F007031846BD4680BC704700BFCF
:1010EC0000ED00E080B483B000AF0346FB7197F9CC
:1010FC000730002B0BDBFB7903F01F02064997F935
:10110C0007305B09012000FA02F241F8232000BFEE
:10111C000C37BD4680BC704700E100E080B483B062
:10112C0000AF03463960FB7197F90730002B0ADBDF
:10113C003B68DAB20C4997F907301201D2B20B4472
:10114C0083F800230AE03B68DAB20849FB7903F024
:10115C000F03043B1201D2B20B441A7600BF0C37BA
:10116C00BD4680BC704700BF00E100E000ED00E030
:10117C0080B489B000AFF860B9607A60FB6803F0A6
:10118C000703FB61FB69C3F10703042B28BF04238E
:10119C00BB61FB690433062B02D9FB69033B00E0FE
:1011AC0000237B614FF0FF32BB6902FA03F3DA4391
:1011BC00BB681A407B699A404FF0FF317B6901FA9A
:1011CC0003F3D9437B680B40134318462437BD46C1
:1011DC0080BC704780B582B000AF78607B68013B03
:1011EC00B3F1807F01D301230FE00A4A7B68013BF6
:1011FC0053600F214FF0FF30FFF790FF054B00229B
:10120C009A60044B07221A60002318460837BD4623
:10121C0080BD00BF10E000E080B582B000AF786008
:10122C007868FFF72DFF00BF0837BD4680BD80B53D
:10123C0086B000AF0346B9607A60FB7300237B6114
:10124C00FFF742FF78617A68B9687869FFF790FF19
:10125C00024697F90F3011461846FFF75FFF00BFA3
:10126C001837BD4680BD80B582B000AF0346FB7118
:10127C0097F907301846FFF735FF00BF0837BD4612
:10128C0080BD80B582B000AF78607868FFF7A2FFB0
:10129C00034618460837BD4680BD000080B48BB0AD
:1012AC0000AF7860396000237B6200233B6269E108
:1012BC0001227B6A02FA03F3FB613B681B68FA6943
:1012CC001340BB61BA69FB699A4240F058813B6894
:1012DC005B689A4A93425ED0984A934275D8984A72
:1012EC00934258D0964A93426FD8964A934252D022
:1012FC00944A934269D8944A93424CD0924A93426E
:10130C0063D8924A934246D0904A93425DD8122BAE
:10131C002AD8122B59D801A252F823F0A313000893
:10132C007D1300088F130008D1130008D713000891
:10133C00D7130008D7130008D7130008D7130008D9
:10134C00D7130008D7130008D7130008D7130008C9
:10135C00D7130008D7130008D7130008D7130008B9
:10136C008513000899130008794A934213D02CE096
:10137C003B68DB683B6229E03B68DB6804333B621B
:10138C0024E03B68DB6808333B621FE03B68DB68AA
:10139C000C333B621AE03B689B68002B02D10423A0
:1013AC003B6213E03B689B68012B05D108233B6231
:1013BC007B68FA691A6109E008233B627B68FA6969
:1013CC005A6103E000233B6200E000BFBB69FF2BC6
:1013DC0001D87B6801E07B6804337B61BB69FF2B20
:1013EC0002D87B6A9B0002E07B6A083B9B003B6156
:1013FC007B691A680F213B6901FA03F3DB431A403E
:10140C00396A3B6901FA03F31A437B691A603B683A
:10141C005B6803F08053002B00F0B1804D4B9B694F
:10142C004C4A43F0010393614A4B9B6903F001035F
:10143C00BB60BB68484A7B6A9B08023352F8233076
:10144C00FB607B6A03F003039B000F2202FA03F399
:10145C00DB43FA681340FB607B68404A934213D02D
:10146C007B683F4A93420DD07B683E4A934207D03B
:10147C007B683D4A934201D1032306E0042304E038
:10148C00022302E0012300E000237A6A02F0030247
:10149C0092009340FA681343FB602F497B6A9B08C8
:1014AC000233FA6841F823203B685B6803F480132D
:1014BC00002B06D02D4B9A682C49BB6913438B60CB
:1014CC0006E02A4B9A68BB69DB43284913408B60C2
:1014DC003B685B6803F40013002B06D0234BDA68DF
:1014EC002249BB691343CB6006E0204BDA68BB6929
:1014FC00DB431E491340CB603B685B6803F400334D
:10150C00002B06D0194B5A681849BB6913434B6022
:10151C0006E0164B5A68BB69DB43144913404B6019
:10152C003B685B6803F48033002B21D00F4B1A68A7
:10153C000E49BB6913430B6021E000BF0000321061
:10154C0000003110000022100000211000001210C9
:10155C000000111000100240000001400008014082
:10156C00000C014000100140001401400004014037
:10157C000B4B1A68BB69DB43094913400B607B6A50
:10158C0001337B623B681A687B6A22FA03F3002BF7
:10159C007FF48EAE00BF00BF2C37BD4680BC7047B9
:1015AC000004014080B485B000AF78600B467B80AE
:1015BC007B689A687B881340002B02D00123FB7355
:1015CC0001E00023FB73FB7B18461437BD4680BC3F
:1015DC00704780B483B000AF78600B467B801346B5
:1015EC007B707B78002B03D07A887B681A6103E0D0
:1015FC007B881A047B681A6100BF0C37BD4680BC1F
:10160C007047000080B586B000AF78607B68002B17
:10161C0001D1012372E27B681B6803F00103002BEC
:10162C0000F08780924B5B6803F00C03042B0CD00A
:10163C008F4B5B6803F00C03082B12D18C4B5B684F
:10164C0003F48033B3F5803F0BD1894B1B6803F453
:10165C000033002B6CD07B685B68002B68D10123B6
:10166C004CE27B685B68B3F5803F06D1804B1B680E
:10167C007F4A43F4803313602EE07B685B68002B59
:10168C000CD17B4B1B687A4A23F480331360784B64
:10169C001B68774A23F4802313601DE07B685B682A
:1016AC00B3F5A02F0CD1724B1B68714A43F4802305
:1016BC0013606F4B1B686E4A43F4803313600BE06E
:1016CC006B4B1B686A4A23F480331360684B1B68AE
:1016DC00674A23F4802313607B685B68002B13D06C
:1016EC00FFF7C4FC386108E0FFF7C0FC02463B6919
:1016FC00D31A642B01D9032300E25D4B1B6803F45E
:10170C000033002BF0D014E0FFF7B0FC386108E098
:10171C00FFF7ACFC02463B69D31A642B01D90323B7
:10172C00ECE1534B1B6803F40033002BF0D100E0C9
:10173C0000BF7B681B6803F00203002B63D04C4B8B
:10174C005B6803F00C03002B0BD0494B5B6803F078
:10175C000C03082B1CD1464B5B6803F48033002B25
:10176C0016D1434B1B6803F00203002B05D07B689A
:10177C001B69012B01D00123C0E13D4B1B6823F0F9
:10178C00F8027B685B69DB00394913430B603AE074
:10179C007B681B69002B20D0364B01221A60FFF7A7
:1017AC0065FC386108E0FFF761FC02463B69D31A1F
:1017BC00022B01D90323A1E12D4B1B6803F002037B
:1017CC00002BF0D02A4B1B6823F0F8027B685B6976
:1017DC00DB00274913430B6015E0264B00221A60EF
:1017EC00FFF744FC386108E0FFF740FC02463B6918
:1017FC00D31A022B01D9032380E11D4B1B6803F084
:10180C000203002BF0D17B681B6803F00803002B4C
:10181C003AD07B689B69002B19D0174B01221A60B8
:10182C00FFF724FC386108E0FFF720FC02463B6917
:10183C00D31A022B01D9032360E10D4B5B6A03F031
:10184C000203002BF0D0012000F09CFA1CE00A4BA4
:10185C0000221A60FFF70AFC38610FE0FFF706FC64
:10186C0002463B69D31A022B08D9032346E100BF79
:10187C00001002400000424280044242924B5B6ADC
:10188C0003F00203002BE9D17B681B6803F004030F
:10189C00002B00F0A6800023FB758B4BDB6903F05B
:1018AC008053002B0DD1884BDB69874A43F0805362
:1018BC00D361854BDB6903F08053BB60BB680123AC
:1018CC00FB75824B1B6803F48073002B18D17F4B84
:1018DC001B687E4A43F480731360FFF7C7FB3861C3
:1018EC0008E0FFF7C3FB02463B69D31A642B01D90E
:1018FC00032303E1754B1B6803F48073002BF0D0BA
:10190C007B68DB68012B06D16F4B1B6A6E4A43F078
:10191C00010313622DE07B68DB68002B0CD16A4B52
:10192C001B6A694A23F001031362674B1B6A664A00
:10193C0023F0040313621CE07B68DB68052B0CD1DD
:10194C00614B1B6A604A43F0040313625E4B1B6AD3
:10195C005D4A43F0010313620BE05B4B1B6A5A4A6E
:10196C0023F001031362584B1B6A574A23F00403FC
:10197C0013627B68DB68002B15D0FFF777FB3861AF
:10198C000AE0FFF773FB02463B69D31A41F2883237
:10199C00934201D90323B1E04B4B1B6A03F00203C2
:1019AC00002BEED014E0FFF761FB38610AE0FFF783
:1019BC005DFB02463B69D31A41F28832934201D94E
:1019CC0003239BE0404B1B6A03F00203002BEED178
:1019DC00FB7D012B05D13C4BDB693B4A23F080534B
:1019EC00D3617B68DB69002B00F08780364B5B682A
:1019FC0003F00C03082B61D07B68DB69022B46D10A
:101A0C00334B00221A60FFF731FB386108E0FFF717
:101A1C002DFB02463B69D31A022B01D903236DE03F
:101A2C00294B1B6803F00073002BF0D17B681B6AF9
:101A3C00B3F5803F08D1244B5B6823F400327B68FC
:101A4C009B68214913434B601F4B5B6823F4741252
:101A5C007B68196A7B685B6A0B431B4913434B60B9
:101A6C001B4B01221A60FFF701FB386108E0FFF7FE
:101A7C00FDFA02463B69D31A022B01D903233DE040
:101A8C00114B1B6803F00073002BF0D035E0104BAA
:101A9C0000221A60FFF7EAFA386108E0FFF7E6FA6D
:101AAC0002463B69D31A022B01D9032326E0064BCD
:101ABC001B6803F00073002BF0D11EE07B68DB6920
:101ACC00012B07D1012319E00010024000700040E7
:101ADC00600042420B4B5B68FB60FB6803F4803296
:101AEC007B681B6A9A4206D1FB6803F470127B6810
:101AFC005B6A9A4201D0012300E000231846183794
:101B0C00BD4680BD0010024080B584B000AF786047
:101B1C0039607B68002B01D10123D0E06A4B1B6834
:101B2C0003F007033A689A4210D9674B1B6823F0FD
:101B3C00070265493B6813430B60634B1B6803F05A
:101B4C0007033A689A4201D00123B8E07B681B680E
:101B5C0003F00203002B20D07B681B6803F0040306
:101B6C00002B05D0594B5B68584A43F4E063536033
:101B7C007B681B6803F00803002B05D0534B5B6894
:101B8C00524A43F460535360504B5B6823F0F002AD
:101B9C007B689B684D4913434B607B681B6803F063
:101BAC000103002B40D07B685B68012B07D1474BAE
:101BBC001B6803F40033002B15D101237FE07B68F5
:101BCC005B68022B07D1414B1B6803F00073002BA1
:101BDC0009D1012373E03D4B1B6803F00203002B7A
:101BEC0001D101236BE0394B5B6823F003027B6866
:101BFC005B68364913434B60FFF738FAF8600AE02C
:101C0C00FFF734FA0246FB68D31A41F2883293424A
:101C1C0001D9032353E02D4B5B6803F00C027B6866
:101C2C005B689B009A42EBD1274B1B6803F00703C0
:101C3C003A689A4210D2244B1B6823F007022249BF
:101C4C003B6813430B60204B1B6803F007033A6897
:101C5C009A4201D0012332E07B681B6803F0040335
:101C6C00002B08D0194B5B6823F4E0627B68DB68BF
:101C7C00164913434B607B681B6803F00803002B69
:101C8C0009D0124B5B6823F460527B681B69DB0044
:101C9C000E4913434B6000F021F802460B4B5B6876
:101CAC001B0903F00F030A49CB5C22FA03F3094A20
:101CBC001360094B1B681846FFF796F9002318466A
:101CCC001037BD4680BD00BF00200240001002400E
:101CDC00202600086C0000207000002080B487B023
:101CEC0000AF0023FB600023BB6000237B6100235B
:101CFC007B6000233B611E4B5B68FB60FB6803F061
:101D0C000C03042B02D0082B03D027E0194B3B61AA
:101D1C0027E0FB689B0C03F00F03174AD35C7B6036
:101D2C00FB6803F48033002B10D0114B5B685B0C09
:101D3C0003F00103114AD35CBB607B680D4A03FBC3
:101D4C0002F2BB68B2FBF3F37B6104E07B680C4AE4
:101D5C0002FB03F37B617B693B6102E0054B3B615A
:101D6C0000BF3B6918461C37BD4680BC704700BF9E
:101D7C000010024000127A003026000840260008AD
:101D8C0000093D0080B485B000AF78600A4B1B6839
:101D9C000A4AA2FB03235B0A7A6802FB03F3FB608B
:101DAC0000BFFB685A1EFA60002BF9D100BF00BFC0
:101DBC001437BD4680BC70476C000020D34D6210B8
:101DCC0080B582B000AF78607B68002B01D1012315
:101DDC0041E07B6893F83D30DBB2002B06D17B6889
:101DEC00002283F83C207868FFF756F87B680222C3
:101DFC0083F83D207B681A687B68043319461046CB
:101E0C0000F05CFA7B68012283F846207B68012293
:101E1C0083F83E207B68012283F83F207B680122F7
:101E2C0083F840207B68012283F841207B680122E3
:101E3C0083F842207B68012283F843207B680122CF
:101E4C0083F844207B68012283F845207B680122BB
:101E5C0083F83D20002318460837BD4680BD00009E
:101E6C0080B485B000AF78607B6893F83D30DBB20E
:101E7C00012B01D001233AE07B68022283F83D203C
:101E8C007B681B68DA687B681B6842F00102DA60C9
:101E9C007B681B68184A93420ED07B681B68B3F1B1
:101EAC00804F09D07B681B68144A934204D07B682E
:101EBC001B68134A934211D17B681B689B6803F023
:101ECC000703FB60FB68062B10D07B681B681A6845
:101EDC007B681B6842F001021A6007E07B681B6894
:101EEC001A687B681B6842F001021A6000231846CE
:101EFC001437BD4680BC7047002C014000040040E4
:101F0C000008004080B584B000AF78607B681B6827
:101F1C00DB68FB607B681B681B69BB60BB6803F0FC
:101F2C000203002B20D0FB6803F00203002B1BD014
:101F3C007B681B686FF002021A617B6801221A77BA
:101F4C007B681B689B6903F00303002B03D0786844
:101F5C0000F098F905E0786800F08BF9786800F0EB
:101F6C009AF97B6800221A77BB6803F00403002BF4
:101F7C0020D0FB6803F00403002B1BD07B681B688C
:101F8C006FF004021A617B6802221A777B681B6867
:101F9C009B6903F44073002B03D0786800F072F94E
:101FAC0005E0786800F065F9786800F074F97B68F2
:101FBC0000221A77BB6803F00803002B20D0FB68C3
:101FCC0003F00803002B1BD07B681B686FF0080222
:101FDC001A617B6804221A777B681B68DB6903F043
:101FEC000303002B03D0786800F04CF905E0786807
:101FFC0000F03FF9786800F04EF97B6800221A7700
:10200C00BB6803F01003002B20D0FB6803F0100317
:10201C00002B1BD07B681B686FF010021A617B6869
:10202C0008221A777B681B68DB6903F44073002B6A
:10203C0003D0786800F026F905E0786800F019F90B
:10204C00786800F028F97B6800221A77BB6803F0E7
:10205C000103002B0CD0FB6803F00103002B07D00D
:10206C007B681B686FF001021A617868FEF774FFD9
:10207C00BB6803F08003002B0CD0FB6803F08003DB
:10208C00002B07D07B681B686FF080021A617868A0
:10209C0000F07FFABB6803F04003002B0CD0FB6808
:1020AC0003F04003002B07D07B681B686FF04002E5
:1020BC001A61786800F0F8F8BB6803F02003002B75
:1020CC000CD0FB6803F02003002B07D07B681B6847
:1020DC006FF020021A61786800F052FA00BF1037D6
:1020EC00BD4680BD80B584B000AF786039600023F8
:1020FC00FB737B6893F83C30012B01D10223B4E0D5
:10210C007B68012283F83C207B68022283F83D2007
:10211C007B681B689B68BB60BB6823F07703BB6064
:10212C00BB6823F47F43BB607B681B68BA689A600A
:10213C003B681B68B3F5005F3ED0B3F5005F00F25F
:10214C008780B3F5805F00F08680B3F5805F7FD821
:10215C00702B1AD0702B7BD8602B50D0602B77D87B
:10216C00502B3CD0502B73D8402B58D0402B6FD8D1
:10217C00302B64D0302B6BD8202B60D0202B67D821
:10218C00002B5CD0102B5AD062E07B6818683B683F
:10219C0099683B685A683B68DB6800F074F97B68A7
:1021AC001B689B68BB60BB6843F07703BB607B68B4
:1021BC001B68BA689A604FE07B6818683B6899683E
:1021CC003B685A683B68DB6800F05DF97B681B680C
:1021DC009A687B681B6842F480429A603CE07B689A
:1021EC0018683B6859683B68DB681A4600F0D4F8FD
:1021FC007B681B685021184600F02BF92CE07B689B
:10220C0018683B6859683B68DB681A4600F0F2F8BE
:10221C007B681B686021184600F01BF91CE07B688A
:10222C0018683B6859683B68DB681A4600F0B4F8DC
:10223C007B681B684021184600F00BF90CE07B68AA
:10224C001A683B681B681946104600F002F903E057
:10225C000123FB7300E000BF7B68012283F83D2063
:10226C007B68002283F83C20FB7B18461037BD4668
:10227C0080BD80B483B000AF786000BF0C37BD4622
:10228C0080BC704780B483B000AF786000BF0C375F
:10229C00BD4680BC704780B483B000AF786000BF8F
:1022AC000C37BD4680BC704780B483B000AF7860FB
:1022BC0000BF0C37BD4680BC7047000080B485B0B1
:1022CC0000AF786039607B681B68FB607B682F4AC5
:1022DC0093420BD07B68B3F1804F07D07B682C4ABC
:1022EC00934203D07B682B4A934208D1FB6823F0BE
:1022FC007003FB603B685B68FA681343FB607B68A8
:10230C00224A93420BD07B68B3F1804F07D07B6895
:10231C001F4A934203D07B681E4A934208D1FB6844
:10232C0023F44073FB603B68DB68FA681343FB6083
:10233C00FB6823F080023B685B691343FB607B689E
:10234C00FA681A603B689A687B68DA623B681A68BC
:10235C007B689A627B680D4A934203D13B681A6989
:10236C007B681A637B6801225A617B681B6903F0E6
:10237C000103002B05D07B681B6923F001027B68ED
:10238C001A6100BF1437BD4680BC7047002C014059
:10239C00000400400008004080B487B000AFF86033
:1023AC00B9607A60FB681B6A7B61FB681B6A23F06F
:1023BC000102FB681A62FB689B693B613B6923F075
:1023CC00F0033B617B681B013A6913433B617B69FA
:1023DC0023F00A037B617A69BB6813437B61FB685A
:1023EC003A699A61FB687A691A6200BF1C37BD466C
:1023FC0080BC704780B487B000AFF860B9607A6079
:10240C00FB681B6A7B61FB681B6A23F01002FB688C
:10241C001A62FB689B693B613B6923F470433B6127
:10242C007B681B033A6913433B617B6923F0A00370
:10243C007B61BB681B017A6913437B61FB683A695A
:10244C009A61FB687A691A6200BF1C37BD4680BC72
:10245C00704780B485B000AF786039607B689B684A
:10246C00FB60FB6823F07003FB603A68FB68134366
:10247C0043F00703FB607B68FA689A6000BF14376F
:10248C00BD4680BC704780B487B000AFF860B960BF
:10249C007A603B60FB689B687B617B6923F47F43BC
:1024AC007B613B681A027B681A43BB6813437A69E9
:1024BC0013437B61FB687A699A6000BF1C37BD4689
:1024CC0080BC704780B485B000AF786039607B68A1
:1024DC0093F83C30012B01D1022346E07B680122AA
:1024EC0083F83C207B68022283F83D207B681B68C4
:1024FC005B68FB607B681B689B68BB60FB6823F0B8
:10250C007003FB603B681B68FA681343FB607B68D5
:10251C001B68FA685A607B681B68164A93420ED097
:10252C007B681B68B3F1804F09D07B681B68124A2B
:10253C00934204D07B681B68104A93420CD1BB6851
:10254C0023F08003BB603B685B68BA681343BB60D5
:10255C007B681B68BA689A607B68012283F83D200F
:10256C007B68002283F83C20002318461437BD46B4
:10257C0080BC7047002C0140000400400008004063
:10258C0080B483B000AF786000BF0C37BD4680BC10
:10259C00704780B483B000AF786000BF0C37BD4685
:1025AC0080BC704703460244934200D1704703F845
:1025BC00011BF9E770B500260C4D0D4C641BA410E3
:1025CC00A64209D100F01AF800260A4D0A4C641BE9
:1025DC00A410A64205D170BD55F8043B98470136AE
:1025EC00EEE755F8043B98470136F2E7442600081D
:1025FC00442600084426000848260008F8B500BF09
:10260C00F8BC08BC9E467047F8B500BFF8BC08BCC7
:04261C009E4670471F
:102620000000000000000000010203040607080982
:1026300002030405060708090A0B0C0D0E0F101003
:042640000102000093
:042644003101000858
:042648000D01000878
:10264C00010000000100000001000000010000007A
:10265C00010000000100000001000000010000006A
:10266C00010000000100000001000000010000005A
:10267C0032000000320000003200000005000000B3
:10268C000300000002000000010000000100000037
:10269C00010000000100000001000000010000002A
:1026AC0001000000010000000100000000127A008F
:0826BC00100000000100000005
:0400000508000F7D63
:00000001FF
