:020000040800F2
:100000000050002001150008051400080D14000818
:10001000151400081D140008251400080000000035
:100020000000000000000000000000002D14000887
:10003000391400080000000045140008511400089D
:100040004915000849150008491500084915000818
:100050004915000849150008491500084915000808
:1000600049150008491500084915000849150008F8
:1000700049150008491500084915000849150008E8
:1000800049150008491500084915000849150008D8
:1000900049150008491500084915000849150008C8
:1000A00049150008491500084915000849150008B8
:1000B0005D14000849150008491500084915000895
:1000C0004915000849150008491500084915000898
:1000D0004915000849150008491500084915000888
:1000E00049150008491500084915000800000000DE
:1000F0000000000000000000000000000000000000
:0C01000000000000000000005FF808F1A3
:10010C0010B5054C237833B9044B13B10448AFF345
:10011C0000800123237010BDC800002000000000E7
:10012C00503E000808B5034B1BB103490348AFF31D
:10013C00008008BD00000000CC000020503E0008EC
:10014C0080B483B000AF7860094A7B6852F82330E2
:10015C00012B06D1064A7B68002142F823100123AB
:10016C0000E0002318460C37BD4680BC704700BF2A
:10017C00F000002080B483B000AF7860094A7B683F
:10018C0052F82330012B06D1064A7B68002142F835
:10019C002310012300E0002318460C37BD4680BC19
:1001AC00704700BFE400002080B582B000AF002390
:1001BC007B6096E04F4A7B6852F823204E497B685F
:1001CC0041F823204D4A7B6852F8232049497B682B
:1001DC0041F823207B68022B1FD07B68022B27DC85
:1001EC007B68002B03D07B68012B0BD020E0802197
:1001FC00434801F0BDFC03461946404A7B6842F86F
:10020C00231015E040213F4801F0B2FC034619468B
:10021C003A4A7B6842F823100AE02021394801F061
:10022C00A7FC03461946354A7B6842F8231000BFE9
:10023C00304A7B6852F8232030497B6851F82330D0
:10024C009A424BD12B4A7B6852F823202A497B686F
:10025C0051F823309A4241D1274A7B6852F8232027
:10026C0029497B6851F823309A4218D0224A7B687E
:10027C0052F8232024497B6841F823201F4A7B68CD
:10028C0052F82330002B29D1204A7B68642142F894
:10029C0023101F4A7B68012142F823101EE01B4AE1
:1002AC007B6852F823305A1E18497B6841F823208A
:1002BC00164A7B6852F82330002B0FD1134A7B6807
:1002CC000A2142F82310104A7B6852F82330002B85
:1002DC0004D10F4A7B68012142F823107B6801335B
:1002EC007B607B68022B7FF765AF00BF00BF0837D0
:1002FC00BD4680BD0C00002018000020000000202E
:10030C0000100140000C01402400002030000020AF
:10031C00F000002080B582B000AF78607B68482B7D
:10032C001DD07B68482B44DC7B680C2B2CD07B6865
:10033C00452B3ED1012210212A4801F030FC01222C
:10034C004FF48061274801F02AFC274B01221A60E8
:10035C00264B00221A60264B00221A603EE0002237
:10036C001021204801F01BFC01224FF480611D4834
:10037C0001F015FC1C4B00221A601C4B00221A6069
:10038C001B4B01221A6029E001221021154801F0B3
:10039C0006FC00224FF48061124801F000FC124B65
:1003AC0000221A60114B01221A60114B00221A60B4
:1003BC0014E0002210210B4801F0F1FB00224FF455
:1003CC008061084801F0EBFB074B00221A60074BD9
:1003DC0000221A60064B00221A6000BF00BF0837CB
:1003EC00BD4680BD000C0140FC0000200001002037
:1003FC000401002080B582B000AF78607B68482B88
:10040C001ED07B68482B47DC7B680C2B2ED07B687E
:10041C00452B41D101224FF480712C4801F0BFFBD8
:10042C0001224FF40071294801F0B9FB284B01223D
:10043C001A60284B00221A60274B00221A6041E0F8
:10044C0000224FF48071214801F0A9FB01224FF4E6
:10045C0000711E4801F0A3FB1D4B00221A601D4BBE
:10046C0000221A601C4B01221A602BE001224FF46F
:10047C008071164801F093FB00224FF40071134871
:10048C0001F08DFB124B00221A60124B01221A60F4
:10049C00114B00221A6015E000224FF480710B48BA
:1004AC0001F07DFB00224FF40071084801F077FB4E
:1004BC00074B00221A60074B00221A60064B0022E1
:1004CC001A6000BF00BF0837BD4680BD0008014060
:1004DC00FC000020000100200401002080B500AFCA
:1004EC0000F08BFC924B1B68013B042B00F2078144
:1004FC0001A252F823F000BF1905000839050008C5
:10050C00A70500081D06000889060008894B1B6812
:10051C00894A1360894B1B68894A1360854B1B6899
:10052C00884A1360824B02221A60E8E00C20FFF725
:10053C0061FF4520FFF7EEFE0021012000F067FC73
:10054C00814800F045FC0021022000F060FC7F484F
:10055C0000F03EFC0821012000F059FC764B1B6892
:10056C00184600F077FC0821022000F050FC744B78
:10057C001B68184600F06EFC724B1B68002B40F099
:10058C00B7806B4B03221A60714B1B686A4A13606D
:10059C006F4B1B686B4A1360AAE04820FFF72AFFD9
:1005AC004520FFF7B7FE0021012000F030FC694820
:1005BC0000F00EFC0021022000F029FC634800F042
:1005CC0007FC0821012000F022FC5B4B1B6818463D
:1005DC0000F040FC0821022000F019FC584B1B686D
:1005EC00184600F037FC574B1B68002B40F08280FC
:1005FC004F4B04221A60514B1B684F4A13604D4BF2
:10060C001B684F4A13604B4B1B684E4A136071E0DA
:10061C004520FFF7EFFE0C20FFF77CFE00210120A8
:10062C0000F0F5FB494800F0D3FB0021022000F05C
:10063C00EEFB454800F0CCFB0821012000F0E7FB65
:10064C003D4B1B68184600F005FC0821022000F009
:10065C00DEFB3B4B1B68184600F0FCFB394B1B6860
:10066C00002B49D1324B05221A60394B1B68344A96
:10067C001360374B1B68334A13603DE04520FFF78E
:10068C00B9FE4820FFF746FE0021012000F0BFFB19
:10069C002E4800F09DFB0021022000F0B8FB2D48F5
:1006AC0000F096FB0821012000F0B1FB224B1B68E7
:1006BC00184600F0CFFB0821022000F0A8FB204BCD
:1006CC001B68184600F0C6FB1E4B1B68002B15D18F
:1006DC00174B02221A60174B1B68174A1360174BF3
:1006EC001B68174A1360134B1B68164A136005E00E
:1006FC0000BF04E000BF02E000BF00E000BF0E4BF3
:10070C001B68013B0C4A13600D4B1B68013B0C4AE8
:10071C0013600C4B1B68013B0A4A1360064B1B68A9
:10072C000D4A1360064B1B680C4A136000BF80BD5A
:10073C005800002040000020140100203C00002044
:10074C001801002010010020683E0008703E0008CF
:10075C0044000020743E0008080100200C01002019
:10076C0080B500AF694B1B68013B0D2B00F2758205
:10077C0001A252F823F000BFBD070008670C000867
:10078C00670C0008670C0008670C0008670C000871
:10079C00670C0008670C0008670C0008670C000861
:1007AC00670C00080B0800084D090008C10A000876
:1007BC000020FFF7C5FC0346002B0DD04520FFF7AA
:1007CC00A9FD4520FFF716FE504B0C221A60504B2A
:1007DC0001221A6000F011FB4E4B1B68012B02D159
:1007EC000A2000F0B9FC4C4B1B68012B40F03782FF
:1007FC00FFF774FE4FF47A7000F092FC2FE20020A9
:10080C00FFF79EFC0346002B0DD04820FFF782FD1E
:10081C004820FFF7EFFD3D4B0D221A603C4B0122A7
:10082C001A6000F0EAFA0021012000F0F0FA3B48CF
:10083C0000F0CEFA0821012000F0E9FA012000F0C6
:10084C0009FB0021022000F0E2FA354800F0C0FA62
:10085C000821022000F0DBFA324B1B68184600F02E
:10086C00F9FA0120FFF76CFC0346002B0BD02D4B43
:10087C001B6801332B4A13602A4B1B68632B02DD68
:10088C00284B01221A600220FFF75AFC0346002B6A
:10089C0006D0244B1B68244A1360224B01221A6099
:1008AC001C4B1B68012B17D1204B01221A601D4BCE
:1008BC001B681F4A136000F0A0FA1E4B1B68013323
:1008CC001C4A13601B4B1B68022B02D1194B0022D4
:1008DC001A60642000F040FC174B1B68012B40F0A1
:1008EC00C081164B1B68012B06D10020FFF712FDAF
:1008FC000020FFF77FFD05E04520FFF70BFD4520AD
:10090C00FFF778FDFA2000F043FCAAE15400002028
:10091C0068000020600000205C0000207C3E000885
:10092C00843E0008480000203C0000200801002004
:10093C000C0100201C01002064000020FC000020A1
:10094C000020FFF7FDFB0346002B0DD00C20FFF71A
:10095C00E1FC0C20FFF74EFD4A4B0E221A604A4B6D
:10096C0001221A6000F049FA0021012000F04FFA30
:10097C00464800F02DFA0821012000F048FA022028
:10098C0000F068FA0021022000F041FA404800F023
:10099C001FFA0821022000F03AFA3E4B1B68184659
:1009AC0000F058FA3C4B1B68012B17D13B4B022231
:1009BC001A60384B1B683A4A136000F01EFA394B28
:1009CC001B680133374A1360364B1B68022B02D16C
:1009DC00344B00221A60642000F0BEFB0120FFF7AC
:1009EC00C9FB0346002B13D0274B1B68012B0FD1DF
:1009FC00284B1B680133274A1360264B1B68632B5B
:100A0C0002DD244B01221A604FF4FA7000F0DCFB7B
:100A1C000120FFF795FB0346002B0BD01D4B1B68E9
:100A2C0001331C4A13601B4B1B68632B02DD194BF3
:100A3C0001221A600220FFF783FB0346002B06D02D
:100A4C00144B1B68184A1360124B01221A60174B87
:100A5C001B68012B40F00781154B1B68012B06D13D
:100A6C000020FFF757FC0020FFF7C4FC05E04820EE
:100A7C00FFF750FC4820FFF7BDFCFA2000F088FB84
:100A8C00F1E000BF54000020680000207C3E00080C
:100A9C00843E000850000020600000200801002067
:100AAC000C0100201C0100204400002064000020E8
:100ABC00040100200020FFF743FB0346002B40D02D
:100ACC006B4B1A686B4B1B689A4206DD694B1A68B4
:100ADC00674B1B681344674A1360664B1A68644B78
:100AEC001B681A44644B1B689A4206DD614B1A68FA
:100AFC005F4B1B681344604A13605E4B1A685C4B77
:100B0C001B681A445C4B1B689A4206DC5A4B1A68E9
:100B1C00574B1B68D31A574A1360584B01221A6063
:100B2C00574B01221A60574B01221A60564B012277
:100B3C001A60564B01221A60554B01221A6000F0C4
:100B4C005CF90021012000F062F9524800F040F9F4
:100B5C000821012000F05BF9032000F07BF9002153
:100B6C00022000F054F94C4800F032F90821022020
:100B7C0000F04DF9434B1B68184600F06BF901204F
:100B8C00FFF7F8FA0346002B13D0414B1B68012BDF
:100B9C000FD13C4B1B6801333A4A1360394B1B682D
:100BAC00632B02DD374B01221A604FF4FA7000F010
:100BBC000BFB0120FFF7C4FA0346002B0BD0314B83
:100BCC001B6801332F4A13602E4B1B68632B02DD0D
:100BDC002C4B01221A600220FFF7B2FA0346002BBD
:100BEC0006D0284B1B68234A1360264B01221A603F
:100BFC002A4B1B68012B17D1294B03221A60214B5E
:100C0C001B68284A136000F0F8F8274B1B68013367
:100C1C00254A1360244B1B68022B02D1224B002265
:100C2C001A60642000F098FA204B1B68012B1CD131
:100C3C001F4B1B68012B06D10020FFF76BFB00201C
:100C4C00FFF7D8FB05E00C20FFF764FB0C20FFF747
:100C5C00D1FBFA2000F09CFA07E000BF06E000BFD1
:100C6C0004E000BF02E000BF00E000BF00BF80BD99
:100C7C0044000020400000203C00002048000020E0
:100C8C00500000204C000020540000205800002090
:100C9C00680000207C3E0008843E000860000020B4
:100CAC00080100200C0100201C0100206400002021
:100CBC000001002080B586B002AF0346FB71FB79C2
:100CCC0023F00F03FB73FB791B01BB73FB7B43F01E
:100CDC000C03DBB23B72FB7B43F00803DBB27B7291
:100CEC00BB7B43F00C03DBB2BB72BB7B43F0080352
:100CFC00DBB2FB7207F10802642300930423422148
:100D0C00034801F0A9F800BF1037BD4680BD00BFF5
:100D1C002001002080B586B002AF0346FB71FB7941
:100D2C0023F00F03FB73FB791B01BB73FB7B43F0BD
:100D3C000D03DBB23B72FB7B43F00903DBB27B722E
:100D4C00BB7B43F00D03DBB2BB72BB7B43F00903EF
:100D5C00DBB2FB7207F108026423009304234221E7
:100D6C00034801F079F800BF1037BD4680BD00BFC5
:100D7C002001002080B500AF3320FFF79BFF32200D
:100D8C00FFF798FF322000F03DFC2820FFF792FF80
:100D9C00322000F037FC0120FFF78CFF322000F0EE
:100DAC0031FC0620FFF786FF322000F02BFC0C20D4
:100DBC00FFF780FF322000F025FC0220FFF77AFFBE
:100DCC00322000F01FFC8020FFF774FF00BF80BDB5
:100DDC0080B582B000AF786006E07B685A1C7A6000
:100DEC001B781846FFF796FF7B681B78002BF4D115
:100DFC0000BF00BF0837BD4680BD80B500AF0120E5
:100E0C00FFF758FF022000F0FDFB00BF80BD80B54E
:100E1C0084B000AF786039607B68012B08D17B68A7
:100E2C00DAB23B68DBB21344DBB27F33FB7308E00E
:100E3C003B68DBB24033DBB25BB263F07F035BB287
:100E4C00FB73FB7B1846FFF735FF00BF1037BD4621
:100E5C0080BD000080B586B000AF786007F1080354
:100E6C007A680649184602F03DFB07F1080318465C
:100E7C00FFF7AEFF00BF1837BD4680BD8C3E0008A3
:100E8C0080B500AF00F05CFB00F012F800F0C6F883
:100E9C0000F078F800F048F8044801F081FFFFF703
:100EAC0069FFFFF75DFC00BFFBE700BF740100208A
:100EBC0080B590B000AF07F1180328220021184626
:100ECC0002F030FB3B1D00221A605A609A60DA6017
:100EDC001A610223BB610123BB621023FB62002356
:100EEC007B6307F11803184601F00EFB0346002B39
:100EFC0001D000F00FF90F237B600023BB600023AF
:100F0C00FB6000233B6100237B613B1D00211846E5
:100F1C0001F07CFD0346002B01D000F0FBF800BF74
:100F2C004037BD4680BD000080B500AF124B134A60
:100F3C001A60114B124A5A600F4B00229A600E4BEA
:100F4C000022DA600C4B4FF480421A610A4B0022EB
:100F5C005A61094B00229A61074B0022DA61064B59
:100F6C0000221A62044800F033FE0346002B01D025
:100F7C0000F0D0F800BF80BD2001002000540040DC
:100F8C00A086010080B586B000AF07F108030022EF
:100F9C001A605A609A60DA603B4600221A605A6006
:100FAC001D4B4FF080421A601B4B41F63F725A604A
:100FBC00194B00229A60184B0922DA60164B00225A
:100FCC001A61154B00229A61134801F099FE0346F1
:100FDC00002B01D000F09EF84FF48053BB6007F15A
:100FEC00080319460C4802F01DF80346002B01D0EB
:100FFC0000F090F800233B6000237B603B461946D1
:10100C00054802F0FFF90346002B01D000F082F8EE
:10101C0000BF1837BD4680BD7401002080B588B074
:10102C0000AF07F1100300221A605A609A60DA6070
:10103C00344B9B69334A43F008039361314B9B69F2
:10104C0003F00803FB60FB682E4B9B692D4A43F0B1
:10105C00100393612B4B9B6903F01003BB60BB68BF
:10106C00284B9B69274A43F004039361254B9B69EA
:10107C0003F004037B607B6800224FF482612248FA
:10108C0000F08DFD00224FF44071204800F087FDE8
:10109C004FF482633B6101237B610023BB6102231C
:1010AC00FB6107F110031946174800F0DDFB8023A4
:1010BC003B6100237B610123BB6107F110031946DF
:1010CC00134800F0D1FB4FF440733B6101237B616B
:1010DC000023BB610223FB6107F1100319460B4887
:1010EC0000F0C2FB60233B6100237B610123BB61E9
:1010FC0007F110031946044800F0B6FB00BF203777
:10110C00BD4680BD00100240000C014000080140AB
:10111C000010014080B400AF72B600BF00BFFDE705
:10112C0080B483B000AF78607B68084A82FB0312FE
:10113C009210DB17D31A064A1360064B00221A6072
:10114C0000BF0C37BD4680BC704700BF6766666643
:10115C00BC0100205C00002080B483B000AF78603C
:10116C007B68084A82FB03129210DB17D31A064ADB
:10117C001360064B00221A6000BF0C37BD4680BCC2
:10118C00704700BF67666666C001002060000020E3
:10119C0080B483B000AF78607B68084A82FB03128E
:1011AC009210DB17D31A064A1360064B00221A6002
:1011BC0000BF0C37BD4680BC704700BF67666666D3
:1011CC00C40100206400002080B483B000AF7860BC
:1011DC007B68084A82FB03129210DB17D31A064A6B
:1011EC001360064B00221A6000BF0C37BD4680BC52
:1011FC00704700BF67666666C80100206800002063
:10120C0080B400AF214B1B68002B0BDD1F4B1B6800
:10121C00013B1E4A13601D4B1B68002B02D11C4B5B
:10122C0001221A601B4B1B68002B0BDD194B1B6832
:10123C00013B184A1360174B1B68002B02D1164B4D
:10124C0001221A60154B1B68002B0BDD134B1B681E
:10125C00013B124A1360114B1B68002B02D1104B3F
:10126C0001221A600F4B1B68002B0BDD0D4B1B680A
:10127C00013B0C4A13600B4B1B68002B02D10A4B31
:10128C0001221A6000BFBD4680BC7047BC01002023
:10129C005C000020C001002060000020C401002080
:1012AC0064000020C80100206800002080B485B0D4
:1012BC0000AF154B9B69144A43F001039361124B29
:1012CC009B6903F00103BB60BB680F4BDB690E4AE3
:1012DC0043F08053D3610C4BDB6903F080537B608C
:1012EC007B680A4B5B68FB60FB6823F0E063FB6088
:1012FC00FB6843F00073FB60044AFB68536000BF5B
:10130C001437BD4680BC70470010024000000140FD
:10131C0080B58AB000AF786007F1140300221A6020
:10132C005A609A60DA607B681B681D4A934232D11E
:10133C001C4B9B691B4A43F008039361194B9B6937
:10134C0003F008033B613B694FF440737B6112234C
:10135C00BB6103233B6207F114031946124800F0EA
:10136C0083FA124B5B687B627B6A43F0E0637B62BF
:10137C007B6A43F002037B620C4A7B6A5360094B25
:10138C00DB69084A43F40013D361064BDB6903F4B1
:10139C000013FB60FB6800BF2837BD4680BD00BF53
:1013AC000054004000100240000C014000000140BD
:1013BC0080B584B000AF78607B681B68B3F1804F58
:1013CC0013D10C4BDB690B4A43F00103D361094B7E
:1013DC00DB6903F00103FB60FB68002200211C2089
:1013EC0000F00BFA1C2000F024FA00BF1037BD46A9
:1013FC0080BD00BF0010024080B400AF00BFFDE70D
:10140C0080B400AF00BFFDE780B400AF00BFFDE7C4
:10141C0080B400AF00BFFDE780B400AF00BFFDE7B4
:10142C0080B400AF00BFBD4680BC704780B400AF35
:10143C0000BFBD4680BC704780B400AF00BFBD4646
:10144C0080BC704780B500AF00F0C0F800BF80BD15
:10145C0080B500AF024801F0F5FC00BF80BD00BFB5
:10146C007401002080B586B000AF7860144A154B2B
:10147C00D31A7B617B693B61134B1B68002B02D138
:10148C00114B124A1A60104B1A687B6813443A6964
:10149C009A4207D202F04EF803460C221A604FF023
:1014AC00FF3309E0084B1B68FB60074B1A687B682D
:1014BC001344054A1360FB6818461837BD4680BDB7
:1014CC000050002000040000CC010020200300206C
:1014DC0080B400AF00BFBD4680BC704780B582B001
:1014EC0000AF7860FFF78CFEFEF75EFE00BF08379A
:1014FC00BD4680BDFFF7ECFF0B480C490C4A00239E
:10150C0002E0D458C4500433C4188C42F9D3094AAD
:10151C00094C002301E013600432A242FBD302F019
:10152C000FF8FFF7ADFC704700000020C80000204A
:10153C00F83E0008C80000201C030020FEE7000055
:10154C0080B500AF084B1B68074A43F010031360CB
:10155C00032000F047F90F2000F008F8FFF7A6FE73
:10156C000023184680BD00BF0020024080B582B029
:10157C0000AF7860124B1A68124B1B7819464FF467
:10158C007A73B3FBF1F3B2FBF3F3184600F05FF997
:10159C000346002B01D001230EE07B680F2B0AD8E9
:1015AC00002279684FF0FF3000F027F9064A7B687B
:1015BC001360002300E0012318460837BD4680BDA8
:1015CC006C000020740000207000002080B400AF7C
:1015DC00054B1B781A46054B1B681344034A1360D2
:1015EC0000BFBD4680BC704774000020D0010020B5
:1015FC0080B400AF024B1B681846BD4680BC7047D8
:10160C00D001002080B584B000AF7860FFF7F0FF08
:10161C00B8607B68FB60FB68B3F1FF3F05D00A4BF9
:10162C001B781A46FB681344FB6000BFFFF7E0FF12
:10163C000246BB68D31AFA689A42F7D800BF00BFBB
:10164C001037BD4680BD00BF7400002080B485B04B
:10165C0000AF78607B6803F00703FB600C4BDB6822
:10166C00BB60BA684FF6FF031340BB60FB681A02FD
:10167C00BB68134343F0BF6343F40033BB60044ABD
:10168C00BB68D36000BF1437BD4680BC704700BF39
:10169C0000ED00E080B400AF044BDB681B0A03F0E4
:1016AC0007031846BD4680BC704700BF00ED00E044
:1016BC0080B483B000AF0346FB7197F90730002B61
:1016CC000BDBFB7903F01F02064997F907305B0926
:1016DC00012000FA02F241F8232000BF0C37BD466E
:1016EC0080BC704700E100E080B483B000AF0346DB
:1016FC003960FB7197F90730002B0ADB3B68DAB2D3
:10170C000C4997F907301201D2B20B4483F800232D
:10171C000AE03B68DAB20849FB7903F00F03043B9B
:10172C001201D2B20B441A7600BF0C37BD4680BCF6
:10173C00704700BF00E100E000ED00E080B489B02C
:10174C0000AFF860B9607A60FB6803F00703FB61D7
:10175C00FB69C3F10703042B28BF0423BB61FB699E
:10176C000433062B02D9FB69033B00E000237B61A9
:10177C004FF0FF32BB6902FA03F3DA43BB681A403D
:10178C007B699A404FF0FF317B6901FA03F3D9432F
:10179C007B680B40134318462437BD4680BC70470A
:1017AC0080B582B000AF78607B68013BB3F1807F7D
:1017BC0001D301230FE00A4A7B68013B53600F21E0
:1017CC004FF0FF30FFF790FF054B00229A60044B5F
:1017DC0007221A60002318460837BD4680BD00BF9B
:1017EC0010E000E080B582B000AF78607868FFF759
:1017FC002DFF00BF0837BD4680BD80B586B000AF59
:10180C000346B9607A60FB7300237B61FFF742FFEC
:10181C0078617A68B9687869FFF790FF024697F9A2
:10182C000F3011461846FFF75FFF00BF1837BD4653
:10183C0080BD80B582B000AF0346FB7197F90730CD
:10184C001846FFF735FF00BF0837BD4680BD80B591
:10185C0082B000AF78607868FFF7A2FF03461846A5
:10186C000837BD4680BD000080B48BB000AF7860F7
:10187C00396000237B6200233B6269E101227B6AB1
:10188C0002FA03F3FB613B681B68FA691340BB6106
:10189C00BA69FB699A4240F058813B685B689A4A86
:1018AC0093425ED0984A934275D8984A934258D046
:1018BC00964A93426FD8964A934252D0944A934296
:1018CC0069D8944A93424CD0924A934263D8924A34
:1018DC00934246D0904A93425DD8122B2AD8122BB1
:1018EC0059D801A252F823F06F19000849190008C1
:1018FC005B1900089D190008A3190008A31900081A
:10190C00A3190008A3190008A3190008A3190008BB
:10191C00A3190008A3190008A3190008A3190008AB
:10192C00A3190008A3190008A319000851190008ED
:10193C0065190008794A934213D02CE03B68DB68A8
:10194C003B6229E03B68DB6804333B6224E03B6884
:10195C00DB6808333B621FE03B68DB680C333B629F
:10196C001AE03B689B68002B02D104233B6213E016
:10197C003B689B68012B05D108233B627B68FA69A5
:10198C001A6109E008233B627B68FA695A6103E03B
:10199C0000233B6200E000BFBB69FF2B01D87B68D2
:1019AC0001E07B6804337B61BB69FF2B02D87B6A47
:1019BC009B0002E07B6A083B9B003B617B691A68D9
:1019CC000F213B6901FA03F3DB431A40396A3B6987
:1019DC0001FA03F31A437B691A603B685B6803F0F6
:1019EC008053002B00F0B1804D4B9B694C4A43F067
:1019FC00010393614A4B9B6903F00103BB60BB6815
:101A0C00484A7B6A9B08023352F82330FB607B6A9E
:101A1C0003F003039B000F2202FA03F3DB43FA6883
:101A2C001340FB607B68404A934213D07B683F4A6B
:101A3C0093420DD07B683E4A934207D07B683D4A67
:101A4C00934201D1032306E0042304E0022302E0C5
:101A5C00012300E000237A6A02F003029200934013
:101A6C00FA681343FB602F497B6A9B080233FA68C0
:101A7C0041F823203B685B6803F48013002B06D0ED
:101A8C002D4B9A682C49BB6913438B6006E02A4B9B
:101A9C009A68BB69DB43284913408B603B685B68E1
:101AAC0003F40013002B06D0234BDA682249BB69E0
:101ABC001343CB6006E0204BDA68BB69DB431E495D
:101ACC001340CB603B685B6803F40033002B06D0FB
:101ADC00194B5A681849BB6913434B6006E0164B07
:101AEC005A68BB69DB43144913404B603B685B6825
:101AFC0003F48033002B21D00F4B1A680E49BB69BD
:101B0C0013430B6021E000BF0000321000003110C5
:101B1C000000221000002110000012100000111013
:101B2C00001002400000014000080140000C014080
:101B3C000010014000140140000401400B4B1A68D6
:101B4C00BB69DB43094913400B607B6A01337B6241
:101B5C003B681A687B6A22FA03F3002B7FF48EAE83
:101B6C0000BF00BF2C37BD4680BC7047000401404D
:101B7C0080B485B000AF78600B467B807B689A6838
:101B8C007B881340002B02D00123FB7301E0002360
:101B9C00FB73FB7B18461437BD4680BC704780B482
:101BAC0083B000AF78600B467B8013467B707B78EC
:101BBC00002B03D07A887B681A6103E07B881A04B7
:101BCC007B681A6100BF0C37BD4680BC70470000B3
:101BDC0080B584B000AF78607B68002B01D1012305
:101BEC002BE17B6893F83D30DBB2002B06D17B6890
:101BFC00002283F83C207868FFF78AFB7B6824225C
:101C0C0083F83D207B681B681A687B681B6822F090
:101C1C0001021A607B681B681A687B681B6842F4B7
:101C2C0000421A607B681B681A687B681B6822F488
:101C3C0000421A6001F032F8F8607B685B68814AF8
:101C4C00934207D8FB68804A934294BF0123002338
:101C5C00DBB206E0FB687D4A934294BF012300236C
:101C6C00DBB2002B01D00123E7E0FB68784AA2FB32
:101C7C0003239B0CBB607B681B685B6823F03F01F4
:101C8C007B681B68BA680A435A607B681B681B6ACE
:101C9C0023F03F017B685B686A4A934202D8BB68B9
:101CAC00013309E0BB684FF4967202FB03F3694AF7
:101CBC00A2FB03239B0901337A6812680B4313625E
:101CCC007B681B68DB6923F44F4222F0FF027B68C0
:101CDC005B685C498B4219D8FB68591E7B685B6852
:101CEC005B00B1FBF3F3591C40F6FC730B40002B6B
:101CFC000AD0FB68591E7B685B685B00B1FBF3F391
:101D0C000133C3F30B0351E004234FE07B689B6862
:101D1C00002B11D1FB68581E7B6859680B465B0081
:101D2C000B44B0FBF3F30133C3F30B03002B0CBFD9
:101D3C0001230023DBB212E0FB68581E7B68596854
:101D4C000B469B000B4499000B44B0FBF3F301339F
:101D5C00C3F30B03002B0CBF01230023DBB2002BBE
:101D6C0001D0012322E07B689B68002B0ED1FB681D
:101D7C00581E7B6859680B465B000B44B0FBF3F3B1
:101D8C000133C3F30B0343F400430FE0FB68581E0D
:101D9C007B6859680B469B000B4499000B44B0FBC5
:101DAC00F3F30133C3F30B0343F44043796809683D
:101DBC001343CB617B681B681B6823F0C0017B68F5
:101DCC00DA697B681B6A1A437B681B680A431A60D2
:101DDC007B681B689B6823F4034323F0FF037A683A
:101DEC0011697A68D26811437A6812680B43936060
:101DFC007B681B68DB6823F0FF017B685A697B6892
:101E0C009B691A437B681B680A43DA607B681B6812
:101E1C001A687B681B6842F001021A607B6800221A
:101E2C001A647B68202283F83D207B6800221A63A9
:101E3C007B68002283F83E20002318461037BD46ED
:101E4C0080BD00BFA08601007F841E00FF083D00FE
:101E5C0083DE1B43D34D621080B588B002AFF860AF
:101E6C007A601A460B467B8113463B81FFF7C0FB19
:101E7C007861FB6893F83D30DBB2202B40F0E080BA
:101E8C007B690093192301227049F86800F064F90A
:101E9C000346002B01D00223D3E0FB6893F83C30BF
:101EAC00012B01D10223CCE0FB68012283F83C20FA
:101EBC00FB681B681B6803F00103012B07D0FB6850
:101ECC001B681A68FB681B6842F001021A60FB6809
:101EDC001B681A68FB681B6822F400621A60FB68B6
:101EEC00212283F83D20FB68102283F83E20FB68FA
:101EFC0000221A64FB687A685A62FB683A895A8530
:101F0C00FB685B8D9AB2FB681A85FB68504ADA62F3
:101F1C0079897B693A6AF86800F09CF80346002BD3
:101F2C0001D001238DE000233B61FB681B685B69DA
:101F3C003B61FB681B689B693B613B6966E07A69A6
:101F4C00396AF86800F022FA0346002B0DD0FB68C2
:101F5C001B6C042B07D1FB681B681A68FB681B6899
:101F6C0042F400721A6001236BE0FB685B6A1A781A
:101F7C00FB681B681A61FB685B6A5A1CFB685A6237
:101F8C00FB685B8D9BB2013B9AB2FB685A85FB6880
:101F9C001B8D013B9AB2FB681A85FB681B685B6959
:101FAC0003F00403042B1BD1FB681B8D002B17D0F3
:101FBC00FB685B6A1A78FB681B681A61FB685B6AD2
:101FCC005A1CFB685A62FB685B8D9BB2013B9AB250
:101FDC00FB685A85FB681B8D013B9AB2FB681A851E
:101FEC007A69396AF86800F019FA0346002B0DD0AB
:101FFC00FB681B6C042B07D1FB681B681A68FB6819
:10200C001B6842F400721A6001231AE0FB681B8DF6
:10201C00002B94D1FB681B681A68FB681B6842F4A0
:10202C0000721A60FB68202283F83D20FB680022B6
:10203C0083F83E20FB68002283F83C20002300E05C
:10204C00022318461837BD4680BD00BF02001000A1
:10205C000000FFFF80B588B002AFF8607A603B608B
:10206C000B467B81FB68DB6A7B617B69082B06D0A6
:10207C007B69012B03D07B6913F5803F08D1FB688A
:10208C001B681A68FB681B6842F480721A600BE0CC
:10209C00FB681B6B122B07D1FB681B681A68FB686B
:1020AC001B6842F480721A603B6800937B680022C4
:1020BC004FF00111F86800F04FF80346002B0DD0DB
:1020CC00FB681B681B6803F48073B3F5807F03D136
:1020DC00FB684FF400721A64032335E0FB681B693C
:1020EC00B3F5804F08D17B89DBB21A46FB681B68BD
:1020FC0002F0FE021A611BE07B89DB11DBB203F0FC
:10210C000603DBB263F00F03DAB2FB681B681A61DB
:10211C003B687A680E49F86800F098F80346002B83
:10212C0001D0012310E07B89DAB2FB681B681A61CD
:10213C003B687A680749F86800F088F80346002B7A
:10214C0001D0012300E0002318461837BD4680BD9E
:10215C00080001000200010080B584B000AFF860F7
:10216C00B9603B601346FB7148E03B68B3F1FF3F3D
:10217C0044D0FFF73DFA0246BB69D31A3A689A423B
:10218C0002D33B68002B39D1BB681B0CDBB2012B93
:10219C000DD1FB681B685B69DA43BB6813409BB2CB
:1021AC00002B0CBF01230023DBB21A460CE0FB68AA
:1021BC001B689B69DA43BB6813409BB2002B0CBFB6
:1021CC0001230023DBB21A46FB799A4216D1FB6835
:1021DC0000221A63FB68202283F83D20FB68002252
:1021EC0083F83E20FB681B6C43F02002FB681A64EA
:1021FC00FB68002283F83C20012323E0BB681B0C06
:10220C00DBB2012B0DD1FB681B685B69DA43BB6841
:10221C0013409BB2002B0CBF01230023DBB21A46E8
:10222C000CE0FB681B689B69DA43BB6813409BB2EC
:10223C00002B0CBF01230023DBB21A46FB799A4218
:10224C0093D0002318461037BD4680BD80B584B0AE
:10225C0000AFF860B9607A603B6071E0FB681B68A6
:10226C005B6903F48063B3F5806F23D1FB681B6853
:10227C001A68FB681B6842F400721A60FB681B68E2
:10228C006FF480625A61FB6800221A63FB6820229B
:10229C0083F83D20FB68002283F83E20FB681B6C12
:1022AC0043F00402FB681A64FB68002283F83C20AC
:1022BC00012367E07B68B3F1FF3F41D0FFF798F94A
:1022CC0002463B68D31A7A689A4202D37B68002B89
:1022DC0036D1BB681B0CDBB2012B0CD1FB681B6825
:1022EC005B69DA43BB6813409BB2002B14BF01231C
:1022FC000023DBB20BE0FB681B689B69DA43BB680D
:10230C0013409BB2002B14BF01230023DBB2002B24
:10231C0016D0FB6800221A63FB68202283F83D204C
:10232C00FB68002283F83E20FB681B6C43F0200204
:10233C00FB681A64FB68002283F83C20012321E02F
:10234C00BB681B0CDBB2012B0CD1FB681B685B69F7
:10235C00DA43BB6813409BB2002B14BF012300234C
:10236C00DBB20BE0FB681B689B69DA43BB6813406C
:10237C009BB2002B14BF01230023DBB2002B7FF494
:10238C006DAF002318461037BD4680BD80B584B0B4
:10239C0000AFF860B9607A6034E0F86800F086F855
:1023AC000346002B01D0012334E0BB68B3F1FF3F9F
:1023BC0028D0FFF71DF902467B68D31ABA689A42F7
:1023CC0002D3BB68002B1DD1FB681B685B6903F053
:1023DC008003802B16D0FB6800221A63FB68202236
:1023EC0083F83D20FB68002283F83E20FB681B6CC1
:1023FC0043F02002FB681A64FB68002283F83C203F
:10240C00012307E0FB681B685B6903F08003802BEA
:10241C00C3D1002318461037BD4680BD80B584B0AB
:10242C0000AFF860B9607A6034E0F86800F03EF80C
:10243C000346002B01D0012334E0BB68B3F1FF3F0E
:10244C0028D0FFF7D5F802467B68D31ABA689A42AF
:10245C0002D3BB68002B1DD1FB681B685B6903F0C2
:10246C000403042B16D0FB6800221A63FB6820229D
:10247C0083F83D20FB68002283F83E20FB681B6C30
:10248C0043F02002FB681A64FB68002283F83C20AE
:10249C00012307E0FB681B685B6903F00403042B52
:1024AC00C3D1002318461037BD4680BD80B483B01D
:1024BC0000AF78607B681B685B6903F48063B3F5DD
:1024CC00806F1BD17B681B686FF480625A617B68DC
:1024DC0000221A637B68202283F83D207B6800224F
:1024EC0083F83E207B681B6C43F004027B681A6403
:1024FC007B68002283F83C20012300E0002318466F
:10250C000C37BD4680BC704780B586B000AF786094
:10251C007B68002B01D1012372E27B681B6803F0FE
:10252C000103002B00F08780924B5B6803F00C03D7
:10253C00042B0CD08F4B5B6803F00C03082B12D1CF
:10254C008C4B5B6803F48033B3F5803F0BD1894B24
:10255C001B6803F40033002B6CD07B685B68002B8A
:10256C0068D101234CE27B685B68B3F5803F06D1F0
:10257C00804B1B687F4A43F4803313602EE07B68EA
:10258C005B68002B0CD17B4B1B687A4A23F480339D
:10259C001360784B1B68774A23F4802313601DE08B
:1025AC007B685B68B3F5A02F0CD1724B1B68714A2A
:1025BC0043F4802313606F4B1B686E4A43F48033E3
:1025CC0013600BE06B4B1B686A4A23F48033136077
:1025DC00684B1B68674A23F4802313607B685B6835
:1025EC00002B13D0FFF704F8386108E0FFF700F870
:1025FC0002463B69D31A642B01D9032300E25D4BDD
:10260C001B6803F40033002BF0D014E0FEF7F0FF4E
:10261C00386108E0FEF7ECFF02463B69D31A642BE5
:10262C0001D90323ECE1534B1B6803F40033002B5B
:10263C00F0D100E000BF7B681B6803F00203002BA5
:10264C0063D04C4B5B6803F00C03002B0BD0494B55
:10265C005B6803F00C03082B1CD1464B5B6803F43E
:10266C008033002B16D1434B1B6803F00203002B65
:10267C0005D07B681B69012B01D00123C0E13D4BC8
:10268C001B6823F0F8027B685B69DB003949134354
:10269C000B603AE07B681B69002B20D0364B012283
:1026AC001A60FEF7A5FF386108E0FEF7A1FF0246AD
:1026BC003B69D31A022B01D90323A1E12D4B1B68D3
:1026CC0003F00203002BF0D02A4B1B6823F0F80216
:1026DC007B685B69DB00274913430B6015E0264BD5
:1026EC0000221A60FEF784FF386108E0FEF780FFD5
:1026FC0002463B69D31A022B01D9032380E11D4BFF
:10270C001B6803F00203002BF0D17B681B6803F0FD
:10271C000803002B3AD07B689B69002B19D0174B10
:10272C0001221A60FEF764FF386108E0FEF760FFD3
:10273C0002463B69D31A022B01D9032360E10D4BEE
:10274C005B6A03F00203002BF0D0012000F0BAFA10
:10275C001CE00A4B00221A60FEF74AFF38610FE0BA
:10276C00FEF746FF02463B69D31A022B08D9032316
:10277C0046E100BF00100240000042428004424289
:10278C00924B5B6A03F00203002BE9D17B681B6858
:10279C0003F00403002B00F0A6800023FB758B4B89
:1027AC00DB6903F08053002B0DD1884BDB69874A22
:1027BC0043F08053D361854BDB6903F08053BB60DE
:1027CC00BB680123FB75824B1B6803F48073002BE1
:1027DC0018D17F4B1B687E4A43F480731360FEF75D
:1027EC0007FF386108E0FEF703FF02463B69D31A86
:1027FC00642B01D9032303E1754B1B6803F480732D
:10280C00002BF0D07B68DB68012B06D16F4B1B6A69
:10281C006E4A43F0010313622DE07B68DB68002BEA
:10282C000CD16A4B1B6A694A23F001031362674B94
:10283C001B6A664A23F0040313621CE07B68DB68A6
:10284C00052B0CD1614B1B6A604A43F004031362E5
:10285C005E4B1B6A5D4A43F0010313620BE05B4B5A
:10286C001B6A5A4A23F001031362584B1B6A574ADE
:10287C0023F0040313627B68DB68002B15D0FEF792
:10288C00B7FE38610AE0FEF7B3FE02463B69D31A85
:10289C0041F28832934201D90323B1E04B4B1B6ABE
:1028AC0003F00203002BEED014E0FEF7A1FE38611A
:1028BC000AE0FEF79DFE02463B69D31A41F28832CC
:1028CC00934201D903239BE0404B1B6A03F00203A4
:1028DC00002BEED1FB7D012B05D13C4BDB693B4A38
:1028EC0023F08053D3617B68DB69002B00F0878079
:1028FC00364B5B6803F00C03082B61D07B68DB69FB
:10290C00022B46D1334B00221A60FEF771FE386160
:10291C0008E0FEF76DFE02463B69D31A022B01D983
:10292C0003236DE0294B1B6803F00073002BF0D1DF
:10293C007B681B6AB3F5803F08D1244B5B6823F49A
:10294C0000327B689B68214913434B601F4B5B68CB
:10295C0023F474127B68196A7B685B6A0B431B490E
:10296C0013434B601B4B01221A60FEF741FE38618A
:10297C0008E0FEF73DFE02463B69D31A022B01D953
:10298C0003233DE0114B1B6803F00073002BF0D0C8
:10299C0035E0104B00221A60FEF72AFE386108E081
:1029AC00FEF726FE02463B69D31A022B01D90323FC
:1029BC0026E0064B1B6803F00073002BF0D11EE0E1
:1029CC007B68DB69012B07D1012319E00010024061
:1029DC0000700040600042420B4B5B68FB60FB6880
:1029EC0003F480327B681B6A9A4206D1FB6803F4BD
:1029FC0070127B685B6A9A4201D0012300E00023CD
:102A0C0018461837BD4680BD0010024080B584B012
:102A1C0000AF786039607B68002B01D10123D0E0D6
:102A2C006A4B1B6803F007033A689A4210D9674B4C
:102A3C001B6823F0070265493B6813430B60634B2B
:102A4C001B6803F007033A689A4201D00123B8E0EF
:102A5C007B681B6803F00203002B20D07B681B688B
:102A6C0003F00403002B05D0594B5B68584A43F420
:102A7C00E06353607B681B6803F00803002B05D0F0
:102A8C00534B5B68524A43F460535360504B5B6842
:102A9C0023F0F0027B689B684D4913434B607B68C5
:102AAC001B6803F00103002B40D07B685B68012B93
:102ABC0007D1474B1B6803F40033002B15D10123BE
:102ACC007FE07B685B68022B07D1414B1B6803F0EE
:102ADC000073002B09D1012373E03D4B1B6803F0FD
:102AEC000203002B01D101236BE0394B5B6823F00F
:102AFC0003027B685B68364913434B60FEF778FD35
:102B0C00F8600AE0FEF774FD0246FB68D31A41F246
:102B1C008832934201D9032353E02D4B5B6803F0B9
:102B2C000C027B685B689B009A42EBD1274B1B68BD
:102B3C0003F007033A689A4210D2244B1B6823F027
:102B4C00070222493B6813430B60204B1B6803F0C0
:102B5C0007033A689A4201D0012332E07B681B6874
:102B6C0003F00403002B08D0194B5B6823F4E062DC
:102B7C007B68DB68164913434B607B681B6803F06A
:102B8C000803002B09D0124B5B6823F460527B685E
:102B9C001B69DB000E4913434B6000F021F8024621
:102BAC000B4B5B681B0903F00F030A49CB5C22FA41
:102BBC0003F3094A1360094B1B681846FEF7D6FC51
:102BCC00002318461037BD4680BD00BF00200240D0
:102BDC0000100240903E00086C00002070000020A5
:102BEC0080B487B000AF0023FB600023BB600023E0
:102BFC007B6100237B6000233B611E4B5B68FB60A9
:102C0C00FB6803F00C03042B02D0082B03D027E045
:102C1C00194B3B6127E0FB689B0C03F00F03174A31
:102C2C00D35C7B60FB6803F48033002B10D0114B1A
:102C3C005B685B0C03F00103114AD35CBB607B68DF
:102C4C000D4A03FB02F2BB68B2FBF3F37B6104E0B9
:102C5C007B680C4A02FB03F37B617B693B6102E0FE
:102C6C00054B3B6100BF3B6918461C37BD4680BC19
:102C7C00704700BF0010024000127A00A83E000806
:102C8C00B83E000800093D0080B400AF024B1B6841
:102C9C001846BD4680BC70476C00002080B500AF64
:102CAC00FFF7F2FF0246054B5B681B0A03F00703B4
:102CBC000349CB5C22FA03F3184680BD0010024096
:102CCC00A03E000880B485B000AF78600A4B1B684A
:102CDC000A4AA2FB03235B0A7A6802FB03F3FB603C
:102CEC0000BFFB685A1EFA60002BF9D100BF00BF71
:102CFC001437BD4680BC70476C000020D34D621069
:102D0C0080B582B000AF78607B68002B01D10123C5
:102D1C0041E07B6893F83D30DBB2002B06D17B6839
:102D2C00002283F83C207868FEF742FB7B68022285
:102D3C0083F83D207B681A687B680433194610467B
:102D4C0000F05CFA7B68012283F846207B68012244
:102D5C0083F83E207B68012283F83F207B680122A8
:102D6C0083F840207B68012283F841207B68012294
:102D7C0083F842207B68012283F843207B68012280
:102D8C0083F844207B68012283F845207B6801226C
:102D9C0083F83D20002318460837BD4680BD00004F
:102DAC0080B485B000AF78607B6893F83D30DBB2BF
:102DBC00012B01D001233AE07B68022283F83D20ED
:102DCC007B681B68DA687B681B6842F00102DA607A
:102DDC007B681B68184A93420ED07B681B68B3F162
:102DEC00804F09D07B681B68144A934204D07B68DF
:102DFC001B68134A934211D17B681B689B6803F0D4
:102E0C000703FB60FB68062B10D07B681B681A68F5
:102E1C007B681B6842F001021A6007E07B681B6844
:102E2C001A687B681B6842F001021A60002318467E
:102E3C001437BD4680BC7047002C01400004004094
:102E4C000008004080B584B000AF78607B681B68D8
:102E5C00DB68FB607B681B681B69BB60BB6803F0AD
:102E6C000203002B20D0FB6803F00203002B1BD0C5
:102E7C007B681B686FF002021A617B6801221A776B
:102E8C007B681B689B6903F00303002B03D07868F5
:102E9C0000F098F905E0786800F08BF9786800F09C
:102EAC009AF97B6800221A77BB6803F00403002BA5
:102EBC0020D0FB6803F00403002B1BD07B681B683D
:102ECC006FF004021A617B6802221A777B681B6818
:102EDC009B6903F44073002B03D0786800F072F9FF
:102EEC0005E0786800F065F9786800F074F97B68A3
:102EFC0000221A77BB6803F00803002B20D0FB6874
:102F0C0003F00803002B1BD07B681B686FF00802D2
:102F1C001A617B6804221A777B681B68DB6903F0F3
:102F2C000303002B03D0786800F04CF905E07868B7
:102F3C0000F03FF9786800F04EF97B6800221A77B0
:102F4C00BB6803F01003002B20D0FB6803F01003C8
:102F5C00002B1BD07B681B686FF010021A617B681A
:102F6C0008221A777B681B68DB6903F44073002B1B
:102F7C0003D0786800F026F905E0786800F019F9BC
:102F8C00786800F028F97B6800221A77BB6803F098
:102F9C000103002B0CD0FB6803F00103002B07D0BE
:102FAC007B681B686FF001021A617868FEF796FA6D
:102FBC00BB6803F08003002B0CD0FB6803F080038C
:102FCC00002B07D07B681B686FF080021A61786851
:102FDC0000F07FFABB6803F04003002B0CD0FB68B9
:102FEC0003F04003002B07D07B681B686FF0400296
:102FFC001A61786800F0F8F8BB6803F02003002B26
:10300C000CD0FB6803F02003002B07D07B681B68F7
:10301C006FF020021A61786800F052FA00BF103786
:10302C00BD4680BD80B584B000AF786039600023A8
:10303C00FB737B6893F83C30012B01D10223B4E085
:10304C007B68012283F83C207B68022283F83D20B8
:10305C007B681B689B68BB60BB6823F07703BB6015
:10306C00BB6823F47F43BB607B681B68BA689A60BB
:10307C003B681B68B3F5005F3ED0B3F5005F00F210
:10308C008780B3F5805F00F08680B3F5805F7FD8D2
:10309C00702B1AD0702B7BD8602B50D0602B77D82C
:1030AC00502B3CD0502B73D8402B58D0402B6FD882
:1030BC00302B64D0302B6BD8202B60D0202B67D8D2
:1030CC00002B5CD0102B5AD062E07B6818683B68F0
:1030DC0099683B685A683B68DB6800F074F97B6858
:1030EC001B689B68BB60BB6843F07703BB607B6865
:1030FC001B68BA689A604FE07B6818683B689968EF
:10310C003B685A683B68DB6800F05DF97B681B68BC
:10311C009A687B681B6842F480429A603CE07B684A
:10312C0018683B6859683B68DB681A4600F0D4F8AD
:10313C007B681B685021184600F02BF92CE07B684B
:10314C0018683B6859683B68DB681A4600F0F2F86F
:10315C007B681B686021184600F01BF91CE07B683B
:10316C0018683B6859683B68DB681A4600F0B4F88D
:10317C007B681B684021184600F00BF90CE07B685B
:10318C001A683B681B681946104600F002F903E008
:10319C000123FB7300E000BF7B68012283F83D2014
:1031AC007B68002283F83C20FB7B18461037BD4619
:1031BC0080BD80B483B000AF786000BF0C37BD46D3
:1031CC0080BC704780B483B000AF786000BF0C3710
:1031DC00BD4680BC704780B483B000AF786000BF40
:1031EC000C37BD4680BC704780B483B000AF7860AC
:1031FC0000BF0C37BD4680BC7047000080B485B062
:10320C0000AF786039607B681B68FB607B682F4A75
:10321C0093420BD07B68B3F1804F07D07B682C4A6C
:10322C00934203D07B682B4A934208D1FB6823F06E
:10323C007003FB603B685B68FA681343FB607B6858
:10324C00224A93420BD07B68B3F1804F07D07B6846
:10325C001F4A934203D07B681E4A934208D1FB68F5
:10326C0023F44073FB603B68DB68FA681343FB6034
:10327C00FB6823F080023B685B691343FB607B684F
:10328C00FA681A603B689A687B68DA623B681A686D
:10329C007B689A627B680D4A934203D13B681A693A
:1032AC007B681A637B6801225A617B681B6903F097
:1032BC000103002B05D07B681B6923F001027B689E
:1032CC001A6100BF1437BD4680BC7047002C01400A
:1032DC00000400400008004080B487B000AFF860E4
:1032EC00B9607A60FB681B6A7B61FB681B6A23F020
:1032FC000102FB681A62FB689B693B613B6923F026
:10330C00F0033B617B681B013A6913433B617B69AA
:10331C0023F00A037B617A69BB6813437B61FB680A
:10332C003A699A61FB687A691A6200BF1C37BD461C
:10333C0080BC704780B487B000AFF860B9607A6029
:10334C00FB681B6A7B61FB681B6A23F01002FB683D
:10335C001A62FB689B693B613B6923F470433B61D8
:10336C007B681B033A6913433B617B6923F0A00321
:10337C007B61BB681B017A6913437B61FB683A690B
:10338C009A61FB687A691A6200BF1C37BD4680BC23
:10339C00704780B485B000AF786039607B689B68FB
:1033AC00FB60FB6823F07003FB603A68FB68134317
:1033BC0043F00703FB607B68FA689A6000BF143720
:1033CC00BD4680BC704780B487B000AFF860B96070
:1033DC007A603B60FB689B687B617B6923F47F436D
:1033EC007B613B681A027B681A43BB6813437A699A
:1033FC0013437B61FB687A699A6000BF1C37BD463A
:10340C0080BC704780B485B000AF786039607B6851
:10341C0093F83C30012B01D1022346E07B6801225A
:10342C0083F83C207B68022283F83D207B681B6874
:10343C005B68FB607B681B689B68BB60FB6823F068
:10344C007003FB603B681B68FA681343FB607B6886
:10345C001B68FA685A607B681B68164A93420ED048
:10346C007B681B68B3F1804F09D07B681B68124ADC
:10347C00934204D07B681B68104A93420CD1BB6802
:10348C0023F08003BB603B685B68BA681343BB6086
:10349C007B681B68BA689A607B68012283F83D20C0
:1034AC007B68002283F83C20002318461437BD4665
:1034BC0080BC7047002C0140000400400008004014
:1034CC0080B483B000AF786000BF0C37BD4680BCC1
:1034DC00704780B483B000AF786000BF0C37BD4636
:1034EC0080BC70470EB46FF0004100B59CB01DABB2
:1034FC0002900690079104910848094953F8042B4F
:10350C000591006802A9019300F092F90022029B38
:10351C001A701CB05DF804EB03B070477800002003
:10352C000802FFFF03460244934200D1704703F8A0
:10353C00011BF9E7014B1868704700BF78000020A9
:10354C0070B500260C4D0D4C641BA410A64209D17D
:10355C0000F078FC00260A4D0A4C641BA410A6420D
:10356C0005D170BD55F8043B98470136EEE755F888
:10357C00043B98470136F2E7F03E0008F03E0008A5
:10358C00F03E0008F43E00087047704738B5054619
:10359C00002940D051F8043C0C1F002BB8BFE41894
:1035AC0000F0DEF81C4A136833B9636014602846D7
:1035BC00BDE8384000F0DAB8A34208D920682118D9
:1035CC008B4201BF19685B6809182160EDE71A4648
:1035DC005B680BB1A342FAD911685018A0420BD109
:1035EC0020680144501883421160E0D118685B6870
:1035FC00084410605360DAE702D90C232B60D6E73D
:10360C00206821188B4201BF19685B68091821607A
:10361C0063605460CBE738BD1803002070B50F4EC3
:10362C000C463168054611B900F0AAFB3060214602
:10363C00284600F0A5FB431C03D14FF0FF34204675
:10364C0070BDC41C24F00304A042F8D0211A2846F3
:10365C0000F096FB0130F2D1EFE700BF140300201D
:10366C002DE9F843CD1C25F0030508350C2D38BF8A
:10367C000C25002D064601DBA94204D90C2333602E
:10368C000020BDE8F883DFF8D48000F069F8D8F8A2
:10369C0000301C4644BB29463046FFF7BFFF431C95
:1036AC00044658D1D8F800402746002F43D1002CAF
:1036BC004BD023683946304604EB030900F060FB1D
:1036CC00814542D1216830466D1A2946FFF7A6FF85
:1036DC0001303AD023682B442360D8F800305A6864
:1036EC0062BBC8F800700FE02268521B20D40B2A72
:1036FC0017D96119A342256018BF5960636808BFC8
:10370C00C8F8001062514B60304600F02FF804F1FD
:10371C000B00231D20F00700C21A1CBF1B1AA3505C
:10372C00AFE76268A3420CBFC8F800205A60EBE711
:10373C0023466468AEE73C467F68B6E71A465B688A
:10374C00A342FBD100235360DEE70C2330463360E9
:10375C0000F00CF894E70560D6E700BF18030020D2
:10376C000148FFF711BF00BF100300200148FFF70D
:10377C000CBF00BF100300202DE9F0471F468E68D8
:10378C008246BE420C4690460B682DD8B1F90C20EF
:10379C0012F4906F26D06569096905EB4505A3EB1A
:1037AC00010905EBD5757B1C4B446D109D4238BF50
:1037BC001D46530527D52946FFF752FF064660B331
:1037CC004A46216900F0FAFAA38923F4906343F086
:1037DC008003A38126614E4426603E466561A5EBBD
:1037EC000905A560BE4200D93E46324641462068D6
:1037FC0000F0ACFA0020A3689B1BA3602368334441
:10380C002360BDE8F0872A4600F0E6FA0646002859
:10381C00E0D150462169FFF7B9FE0C23CAF80030FD
:10382C00A3894FF0FF3043F04003A381E9E7000088
:10383C002DE9F04F98468B8907461B060D4614461A
:10384C009DB010D50B6973B94021FFF709FF2860B3
:10385C00286130B90C233B604FF0FF301DB0BDE840
:10386C00F08F40236B610023099320238DF82930BE
:10387C0030234FF00109CDF80C80DFF898818DF8DA
:10388C002A3023469A4613F8012B0AB1252AF9D17E
:10389C00BAEB040B0BD05B46224629463846FFF7A1
:1038AC006BFF013000F0A780099A5A4409929AF8EC
:1038BC000030002B00F09F8000234FF0FF32CDE949
:1038CC0005230AF1010A049307938DF853301A93D8
:1038DC005446052214F8011B4E4800F061FA049A74
:1038EC00D8B9D00644BF20238DF85330110744BFFC
:1038FC002B238DF853309AF800302A2B15D05446D0
:10390C0000204FF00A0C079A214611F8013B303B7E
:10391C00092B4BD9B0B1079214E0A0EB080309FABC
:10392C0003F31343A2460493D2E7039B191D1B68B0
:10393C000391002BBBBF5B4242F00202079307933B
:10394C00B8BF049223782E2B0AD163782A2B32D15C
:10395C00039B02341A1D1B68039243EAE37305931D
:10396C00DFF8B4A003225046217800F019FA38B1E0
:10397C004022049BA0EB0A008240134301340493C1
:10398C0014F8011B062225488DF8281000F008FABF
:10399C00002836D0224B1BBB039B073323F00703B5
:1039AC0008330393099B334409936AE70C460120BF
:1039BC000CFB0232A8E700234FF00A0C1946013425
:1039CC000593204610F8012B303A092A03D9002B15
:1039DC00C6D00591C4E7044601230CFB0121F0E796
:1039EC0003AB00932A4638460E4B04A9AFF3008074
:1039FC00421C0646D6D1AB895B063FF52DAF099824
:103A0C002CE703AB00932A463846064B04A900F07A
:103A1C007DF8EDE7BA3E0008C03E0008C43E000841
:103A2C0000000000853700082DE9F047164698463F
:103A3C008A680B6907469342B8BF1346336091F806
:103A4C0043200C46DDF820900AB101333360236823
:103A5C00990642BF336802333360256815F00605BA
:103A6C0006D104F1190AE36832689B1AAB422BDCCD
:103A7C0094F843302268003B18BF0123920630D4DF
:103A8C004146384604F14302C847013023D023682D
:103A9C00226903F00603042B14BF002533684FF092
:103AAC00000608BFE56804F11A0408BFED1A54F8C3
:103ABC00123C08BF25EAE5759342C4BF9B1AED186A
:103ACC00B5421AD1002008E001235246414638463F
:103ADC00C847013003D14FF0FF30BDE8F087013506
:103AEC00C1E73020E11881F843005A1C94F84510C6
:103AFC002244023382F84310C2E701232246414696
:103B0C003846C8470130E6D00136D9E72DE9FF47E2
:103B1C000F7E9146782F80460C469A460C9E01F1FA
:103B2C00430207D8622F0AD8002F00F0D380582FF9
:103B3C0000F0BA8004F1420684F842703AE0A7F132
:103B4C006303152BF6D801A151F823F0B13B000803
:103B5C00C53B0008413B0008413B0008413B0008C5
:103B6C00413B0008C53B0008413B0008413B0008B5
:103B7C00413B0008413B0008C73C0008EF3B0008F4
:103B8C00813C0008413B0008413B0008E93C00082F
:103B9C00413B0008EF3B0008413B0008413B00085B
:103BAC00893C000833681A1D1B68326004F1420618
:103BBC0084F8423001239EE033682068191D31607F
:103BCC00060601D51D6803E04506FBD5B3F9005088
:103BDC00002D03DA2D236D4284F843300A23594813
:103BEC0011E021683368080653F8045B02D44906D7
:103BFC0048BFADB26F2F336014BF0A23082351485E
:103C0C00002184F843106668002EA8BF2168A660C6
:103C1C00A4BF21F0040121600DB9002E4BD0164633
:103C2C00B5FBF3F103FB1157C75D06F8017D2F4679
:103C3C00BB420D46F4D9082B0BD12368DF0708D5FE
:103C4C00236961689942DEBF302306F8013C06F116
:103C5C00FF36921B22614B4621464046CDF800A010
:103C6C0003AAFFF7E1FE01304AD14FF0FF3004B058
:103C7C00BDE8F087236843F020032360782732489F
:103C8C0084F84570236831681F0651F8045B02D430
:103C9C005F0648BFADB23160D90744BF43F0200383
:103CAC0023601DB11023ABE72648E9E7236823F016
:103CBC0020032360F6E71646BDE733682568181D18
:103CCC00616930602E061B6801D5196002E0680638
:103CDC00FBD51980002316462361BCE7336800210D
:103CEC001A1D32601E686268304600F059F808B13F
:103CFC00801B606063682361002384F84330AAE76B
:103D0C003246494640462369D0470130ADD023683E
:103D1C009B0713D4E068039B9842B8BF1846A6E7EC
:103D2C000123324649464046D04701309DD00135EB
:103D3C00E36803995B1AAB42F2DCEBE7002504F174
:103D4C001906F5E7CB3E0008DC3E0008884210B5AA
:103D5C0001EB020402D98442234607D8431EA14238
:103D6C0008D011F8012B03F8012FF8E701460244A3
:103D7C008A4200D110BD13F8014D02F8014DF7E74E
:103D8C0038B50023054D044608462B60FDF76AFB49
:103D9C00431C02D12B6803B1236038BD0C030020F7
:103DAC00034610B5C9B202449342184601D1002013
:103DBC0003E0047801338C42F6D110BD0A449142E1
:103DCC0000F1FF3300D1704710B511F8014B91424F
:103DDC0003F8014FF9D110BD2DE9F041804615468D
:103DEC000C4621B91146BDE8F041FFF739BC2AB9A0
:103DFC00FFF7CCFB00242046BDE8F08100F01AF858
:103E0C008542064602D8B5EB500FF4D829464046F9
:103E1C00FFF726FC07460028ECD0B5422A4621467F
:103E2C0028BF3246FFF7CAFF21464046FFF7AEFBDC
:103E3C003C46E0E751F8043C181F002BBCBF0B5864
:103E4C00C0187047F8B500BFF8BC08BC9E46704758
:0C3E5C00F8B500BFF8BC08BC9E467047DB
:103E6800477265656E0000005265640059656C6CA8
:103E78006F7700004D6F646500000000436F756E3A
:103E8800740000002564000000000000000000002D
:103E980001020304060708090000000001020304E8
:103EA80002030405060708090A0B0C0D0E0F101073
:103EB8000102232D302B2000686C4C006566674595
:103EC800464700303132333435363738394142438A
:103ED800444546003031323334353637383961623B
:083EE800636465660000000040
:043EF0003101000894
:043EF4000D010008B4
:103EF80001000000010000000100000001000000B6
:103F080001000000010000000100000001000000A5
:103F18000100000001000000010000000100000095
:103F280032000000320000003200000005000000EE
:103F38000300000002000000010000000100000072
:103F48000100000001000000010000000100000065
:103F580001000000010000000100000000127A00CA
:103F680010000000010000007C000020000000009C
:103F7800D40100203C020020A40200200000000020
:103F88000000000000000000000000000000000029
:103F98000000000000000000000000000000000019
:103FA8000000000000000000000000000000000009
:083FB800000000000000000001
:0400000508001501D9
:00000001FF
